:020000040800F2
:10000000F8C500202903000859840008DD6D0008A8
:1000100055840008C91200080DDB0008000000002C
:10002000000000000000000000000000690200085D
:100030002F25000800000000C502000889BB000849
:100040004303000843030008430300084303000878
:100050004303000843030008312500084303000858
:10006000430300083B25000845250008430300081A
:100070004303000843030008430300084303000848
:100080004303000843030008430300084303000838
:10009000CD12000843030008430300084F25000861
:1000A0004303000843030008430300084303000818
:1000B0004303000843030008430300084303000808
:1000C00043030008430300084303000843030008F8
:1000D00043030008430300084303000879C30008F2
:1000E00043030008430300084303000843030008D8
:1000F000D5BC00084303000843030008251B000883
:1001000043030008430300084303000843030008B7
:1001100043030008430300084303000843030008A7
:1001200043030008A11B0008B11B0008430300089B
:100130004303000843030008430300084303000887
:10014000DD12000843030008430300085D84000833
:100150003124000841240008430300084303000839
:100160004303000843030008430300084303000857
:100170004303000843030008430300080000000095
:10018000430300084303000800F002F800F05CF8A5
:100190000AA090E8000C82448344AAF10107DA45E2
:1001A00001D100F051F8AFF2090EBAE80F0013F0D8
:1001B000010F18BFFB1A43F00103184780680100C4
:1001C000A06801000A444FF0000C10F8013B13F046
:1001D000070408BF10F8014B1D1108BF10F8015BA0
:1001E000641E05D010F8016B641E01F8016BF9D193
:1001F00013F0080F1EBF10F8014BAD1C0C1B09D1EA
:100200006D1E58BF01F801CBFAD505E014F8016B5B
:1002100001F8016B6D1EF9D59142D6D370470000ED
:100220000023002400250026103A28BF78C1FBD8FF
:10023000520728BF30C148BF0B6070471FB515F08B
:100240003DFD1FBD10B510BD00F091FA1146FFF73E
:10025000F5FF11F0E1FB00F0AFFA03B4FFF7F2FF96
:1002600003BC00F0BFFA00002C4B19680868B0E826
:10027000F04F80F30988BFF36F8F4FF0000080F3D9
:10028000118870470000000008480068006880F38B
:1002900008884FF0000080F3148862B661B6BFF39F
:1002A0004F8FBFF36F8F00DF00BF00BF08ED00E08E
:1002B000DFF80C00016841F470010160704700BF75
:1002C00088ED00E0EFF30980BFF36F8F134B1A68DE
:1002D0001EF0100F08BF20ED108A20E9F04F1060CB
:1002E00009B44FF0500080F31188BFF34F8FBFF374
:1002F0006F8F13F035F94FF0000080F3118809BCBF
:1003000019680868B0E8F04F1EF0100F08BFB0EC95
:10031000108A80F30988BFF36F8F70471C0200209A
:10032000EFF30580704700000948804709480047FF
:10033000FEE7FEE7FEE7FEE7FEE7FEE7FEE7FEE795
:10034000FEE7FEE704480549054A064B70470000F2
:1003500071BC000889010008F8850020F8C500205C
:10036000F8A50020F8A500209FED1A1AF5EE000A66
:1003700040EE010ABDEEE00AF5EEC00A10EE100AEA
:10038000F1EE10FA38BF401E00EE100A1349F7EEE6
:10039000001AB8EEC00A30EEC00ADFED0F0A20EEF8
:1003A000200AFCEEC00A10EE900AC0F3080000EE2E
:1003B000900A01EB8000F8EE600A90ED011A70EEF1
:1003C000600A90ED000A71EEE01A21EE800A00EE5C
:1003D000810A704783F9223E00000044FC60010856
:1003E000DFED190AB5EEC00A60EE200ABDEEE01A94
:1003F00011EE100AF1EE10FA38BF401E00EE100A9E
:100400001349F7EE001AB8EEC00A30EEC00ADFED6D
:100410000F0A60EE200ABCEEE00A10EE100AC0F3EC
:10042000080000EE100A01EB8000B8EE400A90EDE3
:10043000011A70EEC00A90ED000A71EEE01A21EE8A
:10044000800A00EE810A704783F9223E00000044D2
:10045000FC60010853EA020C00F069802DE9F04BC2
:100460004FF00006002B1FBFB3FA83F503FA05F423
:1004700024FA05F65E4012BF1643B2FA82F502FA7C
:1004800005F4C5F120051EBF22FA05FC44EA0C0460
:10049000203556EA044C4FEA144418BF641C4FF050
:1004A00000084FF00009904271EB030C39D300298A
:1004B00019BFB1FA81F701FA07F6B0FA80F700FA2E
:1004C00007F6C7F120071EBF20FA07FC46EA0C0614
:1004D0002037B6FBF4FCA7EB0507103F07F01F0B16
:1004E000CBF120060CFA0BFB2CFA06F644BFB34600
:1004F0000026202FA4BF5E464FF0000B5BEA060CDF
:1005000008BF4FF0010B19EB0B09ABFB027C48EB6A
:100510000608C01B06FB02CC0BFB03CC71EB0C01E5
:10052000C1E70B46024641464846BDE8F08B13B58D
:100530004FF000004FF00001AFF30080BDE81C4019
:10054000704710B5431C02E010F8011B71B1810720
:10055000FAD14FF0013202C88C1A8C4314EAC2114E
:10056000F9D0C01A0A0603D0C01E10BDC01A10BDB3
:100570000A0401D0801E10BD0902FCD0401E10BD2F
:10058000032A40F2308010F0030C00F0158011F8BF
:10059000013BBCF1020F624498BF11F801CB00F897
:1005A000013B38BF11F8013BA2F1040298BF00F8EB
:1005B00001CB38BF00F8013B11F0030300F02580A8
:1005C000083AC0F0088051F8043B083A51F804CBCF
:1005D000A0E80810F5E7121D5CBF51F8043B40F895
:1005E000043BAFF30080D20724BF11F8013B11F8A0
:1005F00001CB48BF11F8012B24BF00F8013B00F8E4
:1006000001CB48BF00F8012B704710B5203AC0F06D
:100610000B80B1E81850203AA0E81850B1E8185003
:10062000A0E81850BFF4F5AF5FEA027C24BFB1E840
:100630001850A0E8185044BF18C918C0BDE81040B1
:100640005FEA827C24BF51F8043B40F8043B08BFBA
:100650007047D20728BF31F8023B48BF11F8012B81
:1006600028BF20F8023B48BF00F8012B704702F07A
:10067000FF0343EA032242EA024200F037B84FF098
:10068000000200B5134694469646203922BFA0E8E2
:100690000C50A0E80C50B1F12001BFF4F7AF0907EE
:1006A00028BFA0E80C5048BF0CC05DF804EB8900DF
:1006B00028BF40F8042B08BF704748BF20F8022B22
:1006C00011F0804F18BF00F8012B7047704770473A
:1006D000704710B500F02EF8006810BD10B5044644
:1006E00000F028F8046010BD4FF000020429C0F0AB
:1006F000128010F0030C3FF4C4AFCCF1040CBCF139
:10070000020F18BF00F8012BA8BF20F8022BA1EBA5
:100710000C01FFF7B6BF5FEAC17C24BF00F8012BD4
:1007200000F8012B48BF00F8012B704700487047C4
:100730009485002000487047948500201FB584B040
:1007400000200A9C06AB04AA02A90094AFF3008023
:1007500018B1DDE9020108B010BD0348204000F0E7
:1007600039F800200146F6E70000207C7047754606
:10077000FFF7DCFFAE4605006946534620F0070050
:10078000854618B020B5FFF7DDFDBDE820404FF0ED
:1007900000064FF000074FF000084FF0000B21F06B
:1007A0000701AC46ACE8C009ACE8C009ACE8C00938
:1007B000ACE8C0098D46704710B50446AFF3008021
:1007C0002046BDE81040FFF748BD002801D000F0EA
:1007D00009B8704710B500F025F8BDE81040FFF7E4
:1007E000F4BF000001491820ABBEFEE7260002005E
:1007F00070B505460C460A2000E06D1C00F068F854
:1008000035B128780028F8D102E0641C00F060F8C7
:1008100014B120780028F8D1BDE870400A2000F01B
:1008200057B8000010B5022803D0410103D50DA12F
:1008300012E0002010BD010101D50FA10CE0C100A4
:1008400001D511A108E0810001D512A104E040000A
:1008500001D513A100E0002115A0FFF7C9FF012079
:1008600010BD0000496E76616C6964204F7065723E
:100870006174696F6E0000004469766964652042A6
:1008800079205A65726F00004F766572666C6F77DB
:1008900000000000556E646572666C6F77000000A2
:1008A000496E657861637420526573756C740000DD
:1008B0005349474650453A2041726974686D6574E2
:1008C000696320657863657074696F6E3A20000013
:1008D00008B569468DF800000320ABBE08BDD0ED19
:1008E000000AF4EEC00AF1EE10FA01DD80ED000A14
:1008F000D0ED000AB1EE401AF4EEC10AF1EE10FAA2
:1009000003D2F1EE400AC0ED000A704755494A682B
:1009100022F440324A604A6843681A434A600268D7
:10092000526822F4807203685A6002685368026950
:1009300043EA022203685A600268526822F0407259
:1009400003685A600268526883681A4303685A60F1
:100950000268926822F4006203689A6002689268F2
:10096000C3681A4303689A603F4B826A9A4218D060
:100970000268926822F0706203689A600268926866
:10098000836A1A4303689A600268926822F04052B0
:1009900003689A6002689268C36A1A4303689A609F
:1009A0000BE00268926822F0706203689A60026845
:1009B000926822F0405203689A600268926822F0BE
:1009C000020203689A6002689368027E43EA420268
:1009D00003689A602022125CA2B10268526842F455
:1009E000006203685A600268526822F46042036839
:1009F0005A6002685368426A521E43EA42320368F0
:100A00005A6005E00268526822F4006203685A6086
:100A10000268D26A22F470020368DA620268D36A5A
:100A2000828B521E43EA02520368DA6202689268BD
:100A300022F4007203689A600268936890F830208C
:100A400043EA422203689A600268926822F4806254
:100A500003689A6002689368426943EA82220368E5
:100A60009A607047002301400100000F10B52DED82
:100A7000028BB0EE408AB0EE480A0DF091F8BDEC62
:100A8000028B10BD10B52DED028BB0EE408AF0EE5A
:100A9000608AF0EE680AB0EE480A0DF085FBBDEC06
:100AA000028B10BD10B52DED028BB0EE408AB0EE7A
:100AB000480AFFF759FCBDEC028B10BDF0EE400A6E
:100AC000F5EEC00AF1EE10FA02DDB0EE600A7047F2
:100AD000B1EE600AFBE7000018B19FED020A80ED5D
:100AE000000A70470000000018B1B3EE060A80ED5E
:100AF000000A704770B52DED0C8B84B006460C468D
:100B000015469FED990AF0EE408A9FED970AB0EEE8
:100B1000409A9FED950AF0EE40BA9FED930AF0EEF1
:100B2000409A9FED910AB0EE40AA0EB104B11DB9F2
:100B300004B0BDEC0C8B70BD8C48FFF7CDFF8C482A
:100B4000FFF7D2FF8A48D0ED000A9FED8A1A60EEC7
:100B5000810AB0EE600A00F02DF9F0EE408A28EE2E
:100B6000A80AF0EE408A8248D0ED000AB0EE001AE2
:100B700060EE810A9FED7F1A60EE810AB0EE600A96
:100B800000F018F9B0EE409A29EE090AB0EE409A4A
:100B9000DFED790AB7EE000A00EEA80ADFED770A6A
:100BA00000EEC90ADFED760A20EE200A754880EDD6
:100BB000000A6E4890ED000ADFED730A80EE201AFD
:100BC000B7EE000A31EE000A20EE000A6D48D0EDC3
:100BD000000A80EE801A6D4880ED001A94ED000A3C
:100BE000B5EEC00AF1EE10FA0DD194ED010AB5EEA2
:100BF000C00AF1EE10FA06D194ED020AB5EEC00A71
:100C0000F1EE10FA46D09FED580AB0EE408A00206F
:100C1000019002900390D4ED000A60EEA00A94EDDA
:100C2000011AD4ED011A41EE210A94ED021AD4ED15
:100C3000021A41EE210AB0EE600A00F0A9F8B0EE07
:100C4000408A94ED000A20EE080A8DED010A94ED29
:100C5000010A20EE080A8DED020A94ED020A20EE48
:100C6000080A8DED030ADDED010AF1EE600AB0EE2F
:100C7000600AFFF7FBFEF0EE409A9DED031AF0EEDE
:100C8000410A9DED021AB0EE410AFFF7FBFEB0EEFD
:100C900040AA07E09FED340AF0EE409A9FED320A39
:100CA000B0EE40AA95ED000AB5EEC00AF1EE10FADA
:100CB0000DD195ED010AB5EEC00AF1EE10FA06D19C
:100CC00095ED020AB5EEC00AF1EE10FA3CD0B0EE96
:100CD000690A00F06FF8B0EE408AB0EE690AFFF7DB
:100CE000E1FEB0EE40DAB0EE4A0A00F063F8F0EE52
:100CF00040AAB0EE4A0AFFF7D5FEB0EE40BA28EEA1
:100D00002A0AD5ED010A20EE200AD5ED000A0DEEE3
:100D1000200A68EE0B0A95ED021A00EE810AB0EE89
:100D200040CA95ED010A20EE0B0AD5ED020A0AEE43
:100D3000E00AF0EE40CAF0EE6C0AB0EE4C0AFFF7A3
:100D4000A1FEF0EE40BA03E09FED070AF0EE40BAD4
:100D5000B0EE4A1AF0EE690AB0EE6B0A30460EF0B9
:100D6000C1FC00BFE4E60000000000009402002087
:100D70009802002035FA8E3CC1BFAD3B9DF8C536C8
:100D80002F7C1C419C020020506CC24AA002002013
:100D900010B52DED028BB0EE408AB0EE480A0EF091
:100DA000C8F9B7EE001AC1EE000AB0EE600ABDEC59
:100DB000028B10BD10B52DED028BB0EE408AB0EE67
:100DC000480AFFF70DFBBDEC028B10BD2DE9F04189
:100DD0002DED028B9AB00546B0EE408A0E461746BE
:100DE000984600201790189019901490159016901E
:100DF0004DB146B13FB1B8F1000F04D0B5EEC08A95
:100E0000F1EE10FA05D100201AB0BDEC028BBDE85E
:100E1000F08196ED000A8DED170A96ED010A8DED31
:100E2000180A96ED020A8DED190A97ED000A8DED6C
:100E3000140A97ED010A8DED150A97ED020A8DED62
:100E4000160A17AA14A928460EF080FA402104A811
:100E5000FFF715FC00200090019002900390002401
:100E600017A904A812F012F800BF30E004A800EBA4
:100E7000041090ED000AD5ED000A20EE200A04A827
:100E800000EB0410D0ED010A95ED011A00EE810A85
:100E900004A800EB0410D0ED020A95ED021A00EE52
:100EA000810A04A800EB0410D0ED030A95ED031AA3
:100EB00000EE810A20EE080AF0EE000A80EE201A09
:100EC000684600EB840080ED001A601CC4B2042C5C
:100ED000CCDB002410E005EB840090ED000A6846AE
:100EE00000EB8400D0ED000A30EE200A05EB840010
:100EF00080ED000A601CC4B2042CECDB284611F023
:100F00008FFC012080E7000010B50122102102486B
:100F100003F032F810BD00000000024010B50022BE
:100F20001021024803F028F810BD00000000024024
:100F30007047000010B501221146024803F01CF86A
:100F400010BD00000004024010B50022012102483B
:100F500003F012F810BD00000004024010B5437801
:100F60001B021BB20478234300EE103AB8EEC01AFD
:100F70001C4BD3ED001A21EE211A81ED001AC37823
:100F80001B021BB28478234300EE103AB8EEC01A5D
:100F9000144BD3ED001A21EE211A81ED011A437989
:100FA0001B021BB20479234300EE103AB8EEC01ABC
:100FB0000C4BD3ED001A21EE211A81ED021A037AAF
:100FC0001B04C47943EA04238479234300EE903A56
:100FD000B8EE601ADFED041A21EE211A82ED001A34
:100FE00010BD0000D801002000401C42704710B521
:100FF0000446204610F0BFFD10BD10B50446204643
:1010000010F078F910BD00004278120212B2037895
:101010001A4300EE102AF8EEC00A144A92ED001AA4
:1010200060EE810AC1ED000AC278120212B2837822
:101030001A4300EE102AF8EEC00A0C4A92ED001A8C
:1010400060EE810AC1ED010A4279120212B20379FF
:101050001A4300EE102AF8EEC00A044A92ED001A74
:1010600060EE810AC1ED020A70470000DC01002039
:1010700010B50024FFF75CFFFFF7B8FF0EF08AFC05
:1010800010B144F0800402E00EF0EAFB04430EF0DD
:1010900079FE10B144F0400402E00EF0F9FD044383
:1010A000204610BD2DE9FC4105460E46174600209E
:1010B00000900190FFF732FF922000F0D1F8062255
:1010C0006946122000F0ACF8FFF71EFF9DF8010002
:1010D000000200B29DF8001040EA010400EE104A40
:1010E000B8EEC00A4C48D0ED000A20EE200A86ED8A
:1010F000000A9DF80300000200B29DF8021040EAC9
:10110000010400EE104AB8EEC00A4348D0ED000AD0
:1011100020EE200A86ED010A9DF80500000200B2CB
:101120009DF8041040EA010400EE104AB8EEC00A2F
:101130003948D0ED000A20EE200A86ED020AFFF7BA
:1011400003FF08226946002000F06AF8FFF7F2FE6C
:101150009DF800000F2838D19DF80300000200B26E
:101160009DF8021040EA010400EE104AB8EEC00AF1
:101170002A48D0ED000A20EE200A85ED000A9DF8ED
:101180000500000200B29DF8041040EA010400EEE0
:10119000104AB8EEC00A2148D0ED000A20EE200A1D
:1011A00085ED010A9DF80700000200B29DF80610C7
:1011B00040EA010400EE104AB8EEC00A1748D0ED2C
:1011C000000A20EE200A85ED020AFFF7A7FEA22002
:1011D00000F046F802226946222000F021F8FFF7CD
:1011E00093FE9DF80000C0009DF8011040EA6114D4
:1011F000B4F5806F02DBA4F5006004B200EE104A83
:10120000F8EEC00AB4EE001AB3EE070A00EE810A47
:1012100087ED000ABDE8FC81D8010020DC01002038
:1012200070B506460C46154646F0800000F018F8EA
:1012300006E0552000F014F82070641C681EC5B24A
:10124000002DF6D170BD70B504460D4644F0800007
:1012500000F006F8552000F003F8287070BD00007B
:1012600001B582B04FF47A70012301AA02A900905F
:10127000024804F003FE9DF804000EBDB80B0020E8
:1012800010B502461378DB00547843EA6410B0F5D9
:10129000806F02DBA0F5006318B200EE100AF8EED2
:1012A000C00AB4EE001AB3EE070A00EE810A81ED1F
:1012B000000A10BD70B505460C462846FFF7D0FF62
:1012C0002046FFF7CDFF70BD00BFFEE710B5024816
:1012D00001F0A9FD10BD0000DC09002010B5024896
:1012E00001F0A1FD10BD0000040A002038B504463D
:1012F0004FF404700849086000208860C860082026
:101300000861200A054908704C706B460A4602497C
:10131000034801F08CFB38BD04170020D0000020EA
:10132000DC090020F8B507460C4615461E464FF46A
:1013300000700D49086000208860C86008200861BE
:10134000380A0A4908704F70200A8870CC70280A41
:1013500008714D71300A8871CE716B460A46024998
:10136000034801F064FBF8BDD4160020C000002043
:10137000DC09002038B505460C4640F221200D4915
:10138000086000208860C86008200861280A0A49AF
:1013900008704D70200A8870CC70200A08714C715A
:1013A000200A8871CC716B460A460249034801F055
:1013B0003EFB38BD1C170020D8000020DC090020AF
:1013C000F8B507460C4615461E4640F2FF100D497B
:1013D000086000208860C86008200861380A0A494F
:1013E00008704F70200A8870CC70280A08714D71FF
:1013F000300A8871CE716B460A460249034801F0F3
:1014000016FBF8BDEC160020C8000020040A0020DE
:1014100070B5044620460FF048FE00254FE0C5EBAE
:101420000512211D01EBC20191ED031AF0EE410AF4
:10143000C5EB0512211D01EBC20191ED021AB0EEC0
:10144000410AC5EB0512211D01EBC20101F1140097
:1014500007F06EF9BDEEC00A10EE100A01B2C5EB3E
:101460000512201D00EBC200018204F5387000EB6C
:10147000850090ED000AB5EEC00AF1EE10FA06DD27
:1014800004F5387000EB850090ED000A07E004F5E4
:10149000387000EB850090ED000AB1EE400AD4ED03
:1014A000C10AB4EEE00AF1EE10FA07D294EDC10AD7
:1014B00004F5387000EB850080ED000A6D1C042DEA
:1014C000ADDB204600F002F870BD0000F0B52DED58
:1014D000108B89B0044628269FEDFE0AB0EE40FA34
:1014E0009FEDFC0AF0EE40FA9FEDFA0A84EDBC0A8B
:1014F0009FEDF80A84EDC80AB4F9F20600EE900AEE
:10150000F8EEE00AB0EE600AF3EE040A04F5137098
:1015100007F00EF9B4F8F00686B2D4ED9C0A00EE9E
:10152000106AB8EE400A30EE600AB0EE40FA9FED65
:10153000EA0A2FEE000A84EDC30A94EDC30ADFED38
:10154000E70AB4EEE00AF1EE10FA03D29FEDE30AE7
:1015500084EDC30A94EDC30ADFEDE10AB4EEE00ABC
:10156000F1EE10FA03DD9FEDDE0A84EDC30A94ED7F
:10157000C30ABDEEC00A10EE101A08B2FFF7B6FE9D
:10158000D84991ED010ABDEEC00A10EE101A08B25A
:101590000021FFF7EFFED34890ED010AF2EE0E0AAC
:1015A000B4EEE00AF1EE10FA2BDDCF48B0F9F40604
:1015B00041F65831884204D19FEDCC0A84EDBC0A33
:1015C00027E0C948B0F9F406B0F5FA5F04D19FED01
:1015D000C80A84EDBC0A1CE0C24890ED010AF3EE93
:1015E000030AB4EEE00AF1EE10FA02DD84EDBCFA73
:1015F0000FE0701F00EE100AB8EEC00A84EDBC0ABE
:1016000007E0A6F10A0000EE100AB8EEC00A84ED69
:10161000BC0A00259BE0C5EB0512211D01EBC201B0
:10162000B1F9100013F022FC41EC1B0BC5EB0512C5
:10163000211D01EBC201B1F9100013F017FC41ECC0
:101640001D0B9FEDAC0B53EC102B13F083FC41EC06
:101650001C0B53EC1B2B13F07DFC41EC1A0BC5EB60
:101660000512211D51F83210B1F9020013F0FEFBF2
:1016700041EC1D0BC5EB0512211D51F83210B1F9DB
:10168000020013F0F3FB9FED9D0B53EC102BCDE903
:1016900000019DED000B51EC100B13F05BFC41ECD5
:1016A0001E0B53EC1D2B13F055FC41EC1B0BC5EB33
:1016B0000512201D00EBC200B0F9100000EE100A68
:1016C000B8EEC00ADFED8F0A60EE200AC5EB051206
:1016D000201D50F83200B0F9020000EE100AB8EEFA
:1016E000C00A20EE800A10EE101A084614F030FAF4
:1016F00041EC1C0B53EC1B2B13F012F853EC1A2B80
:10170000CDE902019DED020B51EC100B13F008F82E
:1017100041EC190B9FED7C0B53EC102B13F000F8F0
:1017200041EC180B12F09AFE014604F5447040F8A3
:10173000251000BF94EDC80A00EB8500D0ED000A2B
:1017400030EE200A84EDC80A00BF681CC5B2042D23
:10175000FFF661AF94EDC80AD4EDBC0AB4EEE00A1E
:10176000F1EE10FA7EDD94EDBC0AD4EDC80A80EEED
:10177000201AB0EE418A04F5806090EDF40AF3EE91
:10178000040AB4EEE00AF1EE10FA38DD94EDC80A6E
:10179000F2EE040A80EE201AB0EE000A21EE000AF2
:1017A00020EE080A8DED040A94EDC80AB2EE041A80
:1017B000C0EE010AB0EE000A20EE800A20EE080A10
:1017C0008DED050AD4EDC80AB2EE041A80EE810A46
:1017D000F1EE000A20EE200A20EE080A8DED060A3E
:1017E000D4EDC80AB2EE041A80EE810AF1EE000AC6
:1017F00020EE200A20EE080A8DED070A1EE00020E8
:101800001AE004F5447101EB800191ED000A20EE2D
:10181000080A04A901EB800181ED000A04A901EB8B
:10182000800191ED000AB5EEC00AF1EE10FA00D287
:1018300000E000BF411CC8B20428E2DB00255DE1E6
:10184000C5EB0511201D50F83100B0F9020000EE83
:10185000100AB8EEC00ADFED2B0A20EE200AF0EEE7
:10186000408A00E04EE104A800EB850090ED000AFC
:1018700010EE101A084614F06BF9C5EB0512CDE90D
:101880000201211D51F83210B1F9020013F0EEFAF5
:1018900041EC1C0BC5EB0512211D51F83210B1F9BA
:1018A000020013F0E3FA41EC1E0B9FED140B53EC16
:1018B000102B13F04FFB41EC1D0B53EC1C2B13F0C2
:1018C00049FB41EC1B0B9DED020B53EC102B13F06D
:1018D0003DFE1DE0000000000000C84200803B45C6
:1018E00000204B46B41600203417002000007A4335
:1018F0000000F042335215713F82803EFCAFED5044
:101900007880833E4F020636000000A0F15210405E
:1019100041EC1A0B1FED040B53EC102B12F000FFDF
:1019200041EC190B12F09AFD0746C5EB0511201D7D
:1019300000EBC100B0F9100000286FDD384614F04C
:1019400007F941EC1E0B9FED710B53EC102B13F0BC
:1019500001FB28EEA80ACDE9000110EE101A084696
:1019600014F0F6F841EC1D0B9DED000B53EC102B21
:1019700013F0ECFD41EC1C0BB0EE4C0AF0EE6C0ADF
:101980000DF09AFBB0EE40AAF0EE60AAB1EE680A44
:1019900010EE100A14F0DCF841EC1B0B53EC1A2B80
:1019A00012F0BEFE9FED5B0B53EC102BCDE9020154
:1019B0009DED020B51EC100B12F0F2FF41EC190BF4
:1019C00012F04CFD014604F53D7040F8251000EB87
:1019D000850090ED000ADFED510AB4EEE00AF1EE69
:1019E00010FA08DD4FF47A51C5EB0512201D00EB0B
:1019F000C200018280E004F53D7000EB850090EDAF
:101A0000000ABDEEC00A10EE100A01B2C5EB0512C5
:101A1000201D00EBC20001826EE0FFE7384614F0A3
:101A200097F841EC1D0B9FED390B53EC102B13F085
:101A300091FA28EEA80ACDE9020110EE101A084624
:101A400014F086F8CDE900019DED020B53EC102B4C
:101A50009DED000B51EC100B13F078FD41EC1E0BCB
:101A6000B0EE4E0AF0EE6E0A0DF026FBB0EE40BA74
:101A7000F0EE60BAB1EE680A10EE100A14F068F8E1
:101A800041EC1C0B53EC1B2B13F060FD41EC1A0BCB
:101A90009FED200B53EC102B12F082FF41EC190B41
:101AA00012F0DCFC014604F53D7040F8251000EB17
:101AB000850090ED000ADFED1A0AB4EEE00AF1EEBF
:101AC00010FA08D24CF28011C5EB0512201D00EB74
:101AD000C200018210E004F53D7000EB850090ED3E
:101AE000000ABDEEC00A10EE100A01B2C5EB0512E5
:101AF000201D00EBC2000182681CC5B2042DFFF658
:101B00009FAE00BF09B0BDEC108BF0BD3352157114
:101B10003F82A03E335215713F82903E00007A46CC
:101B200000007AC61B48406800F0006080B31A4885
:101B3000406B00681949884205D94FF00060174989
:101B40004C3908601CE01448406B00681149B831FA
:101B5000884205D94FF000601049503908600FE005
:101B60000D48406B00680B495831884204D94FF04A
:101B700000600849C86003E04FF0006005498860D4
:101B800005480068006840F400700349096808606F
:101B90007047000000600240800A00205864024044
:101BA00010B5024801F0F0FE10BD00002810002022
:101BB00010B5FE48C06C0068FD49884276D9FC48E3
:101BC00054380068F949C96C0968FA4A914201D150
:101BD000202169E0F549C96C0968F54A483A914203
:101BE00001D1202160E0F149C96C0968F14A6032F5
:101BF000914201D1202157E0EC49C96C0968EC4AB7
:101C00001832914201D120214EE0E849C96C09689F
:101C1000E84A1832914201D1C91445E0E349C96C40
:101C20000968E34A303A914201D1C9143CE0DF49E6
:101C3000C96C0968DF4A7832914201D1C91433E096
:101C4000DA49C96C0968DA4A3032914201D1C914C3
:101C50002AE0D649C96C0968D64A3032914202D18D
:101C60004FF4001120E0D149C96C0968D04A183AF4
:101C7000914202D14FF4001116E0CC49C96C0968B9
:101C8000CC4A9032914202D14FF400110CE0C74986
:101C9000C96C0968C64A4832914203D14FF4001119
:101CA00002E003E04FF00061084070E1BF48C06C03
:101CB0000068C049A831884276D9BD4858380068C4
:101CC000BA49C96C0968BB4A914201D1202169E037
:101CD000B649C96C0968B64A483A914201D12021F7
:101CE00060E0B249C96C0968B24A6032914201D1E0
:101CF000202157E0AD49C96C0968AD4A18329142BC
:101D000001D120214EE0A949C96C0968A94A1832BD
:101D1000914201D1C91445E0A449C96C0968A44A9B
:101D2000303A914201D1C9143CE0A049C96C09681C
:101D3000A04A7832914201D1C91433E09B49C96C61
:101D400009689B4A3032914201D1C9142AE097496F
:101D5000C96C0968974A3032914202D14FF40011A0
:101D600020E09249C96C0968914A183A914202D11F
:101D70004FF4001116E08D49C96C09688D4A903204
:101D8000914202D14FF400110CE08849C96C0968F6
:101D9000874A4832914203D14FF4001102E003E038
:101DA0004FF000610840F2E08048C06C0068814953
:101DB0004831884276D97F48103840687B49C96CE1
:101DC00009687C4A914201D1202169E07749C96CB8
:101DD0000968774A483A914201D1202160E073496D
:101DE000C96C0968734A6032914201D1202157E0E1
:101DF0006E49C96C09686E4A1832914201D120219E
:101E00004EE06A49C96C09686A4A1832914201D1A8
:101E1000C91445E06549C96C0968654A303A914280
:101E200001D1C9143CE06149C96C0968614A783242
:101E3000914201D1C91433E05C49C96C09685C4A1C
:101E40003032914201D1C9142AE05849C96C09685D
:101E5000584A3032914202D14FF4001120E05349E8
:101E6000C96C0968524A183A914202D14FF40011E4
:101E700016E04E49C96C09684E4A9032914202D12F
:101E80004FF400110CE04949C96C0968484A4832CE
:101E9000914203D14FF4001102E003E04FF00061E2
:101EA000084074E04348103800684049C96C09682C
:101EB000404A914201D1202168E03C49C96C09683F
:101EC0003B4A483A914201D120215FE03749C96C31
:101ED0000968384A6032914201D1202156E03349E5
:101EE000C96C0968324A1832914201D120214DE073
:101EF0002E49C96C09682F4A1832914201D1C91480
:101F000044E02A49C96C0968294A303A914201D112
:101F1000C9143BE02549C96C0968264A78329142C8
:101F200001D1C91432E02149C96C0968204A303214
:101F3000914201D1C91429E01C49C96C09681D4AA4
:101F40003032914202D14FF400111FE01749C96CA1
:101F50000968174A183A914202D14FF4001115E06E
:101F60001249C96C0968134A9032914202D14FF468
:101F700000110BE00D49C96C09680D4A48329142C5
:101F800002D14FF4001101E04FF000610840002839
:101F90006FD00648C06C0068054988427BD9034869
:101FA000C06C00680349884208D105E0B80B0020E6
:101FB0005864024010600240202068E0FE48C06C77
:101FC0000068FE49884201D1202060E0FA48C06CD8
:101FD0000068FB49884201D1202058E0F648C06CD7
:101FE0000068F6496031884201D120204FE0F24874
:101FF000C06C0068F2494839884201D1C01446E0FB
:10200000ED48C06C0068ED491831884201D1C01418
:102010003DE0E948C06C0068E9491831884201D1C7
:10202000C01434E0E448C06C0068E4497831884268
:1020300001D1C0142BE0E048C06C0068E0493039A1
:10204000884202D14FF4001021E0DB48C06C0068E8
:10205000DA493031884202D14FF4001017E0D648F7
:10206000C06C0068D6493031884204D14FF400106A
:102070000DE0D4E10FE0D048C06C0068CF4990314A
:10208000884202D14FF4001001E04FF00060CB49CC
:10209000091F08606AE1C848C06C0068C849483137
:1020A000884274D9C448C06C0068C5496039884208
:1020B00001D1202066E0C048C06C0068BF4988425A
:1020C00001D120205EE0BC48C06C0068BC49884259
:1020D00001D1202056E0B848C06C0068B749603193
:1020E000884201D120204DE0B348C06C0068B4495B
:1020F0004839884201D1C01444E0AF48C06C006840
:10210000AE491831884201D1C0143BE0AA48C06CE6
:102110000068AB491831884201D1C01432E0A648AA
:10212000C06C0068A5497831884201D1C01429E00B
:10213000A148C06C0068A2493039884202D14FF4EE
:1021400000101FE09C48C06C00689C4930318842F8
:1021500002D14FF4001015E09748C06C0068984910
:102160003031884202D14FF400100BE09248C06C2D
:10217000006892499031884202D14FF4001001E08A
:102180004FF000608D4908390860EFE0FFE78A48AA
:10219000C06C00688A491839884274D98648C06C76
:1021A000006887496039884201D1202066E0824872
:1021B000C06C00688149884201D120205EE07E48E1
:1021C000C06C00687E49884201D1202056E07A48E0
:1021D000C06C006879496031884201D120204DE00F
:1021E0007548C06C006876494839884201D1C014EE
:1021F00044E07148C06C006870491831884201D1D0
:10220000C0143BE06C48C06C00686D4918318842CE
:1022100001D1C01432E06848C06C00686749783169
:10222000884201D1C01429E06348C06C0068644949
:102230003039884202D14FF400101FE05E48C06C74
:1022400000685E493031884202D14FF4001015E039
:102250005948C06C00685A493031884202D14FF465
:1022600000100BE05448C06C00685449903188421B
:1022700002D14FF4001001E04FF000605049703976
:10228000C86073E0FFE74C48C06C00684C49603997
:10229000884201D1202066E04748C06C0068474969
:1022A000884201D120205EE04348C06C0068444968
:1022B000884201D1202056E03F48C06C00683F4969
:1022C0006031884201D120204DE03B48C06C00685D
:1022D0003B494839884201D1C01444E03648C06CBB
:1022E000006836491831884201D1C0143BE03248B9
:1022F000C06C006832491831884201D1C01432E004
:102300002D48C06C00682D497831884201D1C01435
:1023100029E02948C06C006829493039884202D137
:102320004FF400101FE02448C06C0068234930318E
:10233000884202D14FF4001015E01F48C06C0068BD
:102340001F493031884202D14FF400100BE01A4887
:10235000C06C006819499031884202D14FF40010D6
:1023600001E04FF000601649703988601548007828
:1023700000F0020078B11348007820F00200114903
:1023800008700846007840F00400087001221146E9
:102390000D4801F0F1FD0D48007800F00200E0B1B9
:1023A0000A48007820F002000849087008460078C2
:1023B00040F0040008700BE0B80B002010640240ED
:1023C0007060024059010020000402405A010020C0
:1023D00001221021124801F0CFFD1248007800F0D0
:1023E000020078B10F48007820F002000D49087013
:1023F0000846007840F004000870012210210848C7
:1024000001F0BAFD0FF032F90748007800F004003F
:1024100028B10648006840F001000449086010BD7A
:10242000000002405B01002059010020103C0140E7
:1024300010B5024801F0A8FA10BD0000680F002096
:1024400010B5024801F0A0FA10BD0000881000206D
:102450000146087810381823B0FBF3F20848805C76
:10246000C865032A05D908686FF30900001D88654F
:1024700003E008686FF309008865886D7047000005
:10248000E6600108014600208A6A8B69CBB932B147
:10249000012A0DD0022A03D0032A10D10EE000BF7A
:1024A000CB6A03F08073B3F1807F00D1012007E095
:1024B000CB6AB3F1C07F00D1012001E000E000BF92
:1024C00034E08B69B3F5005F1AD132B1012A07D02D
:1024D000022A03D0032A11D10AE000BF01200EE036
:1024E000CB6A03F08073B3F1807F00D1012006E056
:1024F000CB6AB3F1C07F00D1012000E000BF15E03E
:1025000032B1012A05D0022A04D0032A0CD103E0FB
:1025100000BF00BF012008E0CB6A03F08073B3F175
:10252000807F00D1012000E000BF00BF70477047EE
:1025300010B5012001F012FC10BD10B5082001F00B
:102540000DFC10BD10B5102001F008FC10BD10B539
:10255000202001F003FC10BD7047000038B5024692
:102560000020009000BF92F83C00012801D1022019
:1025700038BD012082F83C0000BF0868092816D940
:102580001068C0680C780A3C04EB44050724AC4092
:10259000A0431468E0600C780A3C04EB44048868AB
:1025A000A0401468E46820431468E06013E01068F9
:1025B00000690C7804EB44050724AC40A043146880
:1025C00020610C7804EB44048868A04014682469F6
:1025D0002043146820614868072817D21068406BB0
:1025E0000C79641E04EB84051F24AC40A0431468DE
:1025F0006063088880B20C79641E04EB8404A040F8
:102600001468646B20431468606331E048680D28E7
:1026100017D21068006B0C79E41F04EB84051F24AB
:10262000AC40A04314682063088880B20C79E41F92
:1026300004EB8404A0401468246B204314682063D6
:1026400016E01068C06A0C790D3C04EB84051F2469
:10265000AC40A0431468E062088880B20C790D3C5D
:1026600004EB8404A0401468E46A20431468E06228
:10267000194B1A4C1068A04206D10868122803D1E1
:10268000586840F480005860144C1068A0421CD177
:102690000868102802D00868112816D1586840F43C
:1026A00000005860086810280FD10D4800680D4CD4
:1026B000B0FBF4F000EB80004000009002E00098D6
:1026C000401E009000980028F9D100BF002082F839
:1026D0003C0000BF00BF4BE7002301400020014049
:1026E0004000002040420F0001460868C06C70475F
:1026F00070B5044600250CB9012070BD1549A06ACB
:10270000884200D000BF206C30B9204600F024F889
:102710000020606484F83C00206C00F0100088B950
:10272000206C20F4885040F0020020642046FEF720
:10273000EDF800206064206C20F0020040F0010001
:10274000206400E0012500BF002084F83C0000BFA9
:102750002846D2E70100000F10B586B004461421C8
:1027600001A8FDF78CFF2349206888420FD100BFE4
:10277000002000902048006840F480701E490860E6
:102780000846006800F48070009000BF2FE01B49ED
:10279000206888422BD100BF0020009016480068B6
:1027A00040F48060144908600846006800F48060C6
:1027B000009000BF00BF00BF002000900E481438FA
:1027C000006840F020000C49143908600846006891
:1027D00000F02000009000BF00BF0815019003200A
:1027E00002900020039001A9054801F0C5FA06B047
:1027F00010BD00000020014044380240002201408A
:102800000014024070B504460D460026206880681A
:1028100000F48060B0F5806F11D12068806800F40A
:102820008070B0F5807F0AD1206C40F020002064D9
:1028300000BF002084F83C0000BF012070BD01F003
:10284000A1FB064612E0681C80B125B101F09AFB9D
:10285000801BA8420AD9206C40F00400206400BF0D
:10286000002084F83C0000BF0320E7E720680068F0
:1028700000F002000228E6D16FF012002168086023
:10288000206C40F4007020642068806800F04050A4
:10289000B8B9207EA8B92068C06A00F4700020B1E1
:1028A0002068806800F4806058B9206C20F4807043
:1028B0002064206C00F4805018B9206C40F00100B6
:1028C00020640020BAE7000008B50146002000900F
:1028D00000BF91F83C00012801D1022008BD012071
:1028E00081F83C0000BF0868806800F00100A0B9D2
:1028F0000868806840F001000B6898603B480068F9
:102900003B4BB0FBF3F000EB4000009002E000987E
:10291000401E009000980028F9D10868806800F0F7
:10292000010000285FD0086C40F20163984340F436
:10293000807008640868406800F4806028B1086C02
:1029400020F4005040F480500864086C00F480507B
:10295000B0F5805F04D1486C20F00600486401E0C7
:102960000020486400BF002081F83C0000BF214ADD
:102970006FF022000B681860506800F01F0018BB51
:102980001D4B0868984213D01C4B0868984204D12C
:10299000101D006800F01F0050B1194B08689842E4
:1029A00021D11448001D006800F01F0010281AD221
:1029B0000868806800F0405028B90868806840F0D6
:1029C00080400B6898600EE00B4B086898420AD173
:1029D0000868806800F0405028B90868806840F0B6
:1029E00080400B689860002078E7000040000020DD
:1029F00040420F000023014000200140002101401F
:102A00000022014010B5024692F82030012B01D07F
:102A1000022B06D1106840690843146860610020E9
:102A200010BD506A40F4802050620120F8E7F0B5F4
:102A300004460D461E4694F8207020688368A868F6
:102A400000B900E000BF012F01D0022F7CD103F0BC
:102A5000806030B903F0006018B903F0805000289E
:102A600073D0C3F30161022905D9606A40F4000004
:102A700060620120F0BD012088403060A86860B924
:102A8000B5F800C0E86840EA4C5C206800F5C0700A
:102A900000EB0110C0F800C00FE0D5E901C040EA2A
:102AA000CC00D5F80CC040EA0C00D4F800C00CF5FE
:102AB000C07C0CEB011CCCF80000D5F810C02068DD
:102AC00000F5C07000EB0110C0F804C0287D01289B
:102AD0000ED1206800F5C07000EB0110406840F492
:102AE000807C206800F5C07000EB0110C0F804C0C5
:102AF000D079000692F806C040EA0C4092F805C072
:102B000040EA0C2C10794CEA000C206800F5C070EB
:102B100000EB0110C0F80CC0D078000692F802C09B
:102B200040EA0C4092F801C040EA0C2092F800C044
:102B300040EA0C00D4F800C00CF5C07C0CEB011C82
:102B4000CCF80800206801E016E00FE000F5C07046
:102B500000EB0110006840F0010C206800F5C07027
:102B600000EB0110C0F800C0002083E7606A40F469
:102B70000010606201207DE7606A40F4802060629E
:102B8000012077E7F0B504460A46216894F8205002
:102B9000012D01D0022D7ED1424901F50071086856
:102BA00040F001000860086820F47C500860086864
:102BB000566A40EA06200860107D00F01F060120DA
:102BC00000FA06F3C8699843C861A1F50071D0699D
:102BD000C8B9D1F80C029843C1F80C02908880B2B1
:102BE000968940EA064601F51070576940F837604B
:102BF000108880B2168940EA064601F510705769C0
:102C000000EBC7004660D069012819D1D1F80C0249
:102C10001843C1F80C02908880B2168840EA064634
:102C200001F51070576940F83760908980B21689B5
:102C300040EA064601F51070576900EBC700466090
:102C4000906928B9D1F804029843C1F8040204E05D
:102C5000D1F804021843C1F80402106928B9D1F868
:102C600014029843C1F8140204E0D1F81402184386
:102C7000C1F81402106A012804D1D1F81C021843CB
:102C8000C1F81C02D1F8000220F00100C1F80002D6
:102C90000020F0BDFFE7606A40F480206062012000
:102CA000F7E7000000640040704770B5044694F8F0
:102CB0002050012D01D0022D7CD151B92068C0686F
:102CC00000F0030080B9606A40F4001060620120E7
:102CD00070BD2068006900F0030028B9606A40F404
:102CE000001060620120F3E7206800F5D87000EB67
:102CF0000110006800F004009060906840B92068FE
:102D000000F5D87000EB01100068400D106007E07E
:102D1000206800F5D87000EB01100068C008506012
:102D2000206800F5D87000EB0110006800F0020088
:102D30004008D060206800F5D87000EB01104068B2
:102D400000F00F001061206800F5D87000EB011052
:102D5000406800F47F40000A9061206800F5D87058
:102D600000EB01104068000C5061206800F5D8703D
:102D700000EB011080681870206800F5D87000EB37
:102D80000110806800F47F40000A5870206800F548
:102D9000D87000EB0110806800F47F00000C987080
:102DA000206800F5D87000EB01108068000ED87024
:102DB000206800E031E000F5D87000EB0110C06839
:102DC0001871206800F5D87000EB0110C06800F49D
:102DD0007F40000A5871206800F5D87000EB0110A0
:102DE000C06800F47F00000C9871206800F5D8706E
:102DF00000EB0110C068000ED87131B92068C068BE
:102E000040F020002668F06005E02068006940F08E
:102E100020002668306100205AE7606A40F4802074
:102E20006062012054E72DE9F05F04460025206828
:102E300046692068D0F80490206887682068D0F838
:102E40000CA02068D0F810B02068D0F8188006F0E8
:102E50000100002855D007F00100C0B10120216811
:102E6000886007F0020018B1204600F05AFD0EE01D
:102E700007F0040010B145F4006508E007F0080011
:102E800010B145F4805502E0204600F049FD07F4FA
:102E90008070C8B14FF480702168886007F40070BA
:102EA00018B1204600F03FFD0EE007F4806010B13D
:102EB00045F4005508E007F4006010B145F4804582
:102EC00002E0204600F02EFD07F48030C8B14FF438
:102ED00080302168886007F4003018B1204600F087
:102EE00024FD0EE007F4802010B145F4004508E011
:102EF00007F4002010B145F4803502E0204600F0D0
:102F000013FD06F0080038B10AF0100020B145F4B6
:102F1000007510202168C86006F0040040B10AF076
:102F2000080028B108202168C860204600F00CFA8B
:102F300006F0020038B12068C06800F0030010B14C
:102F4000204600F003FA06F0400038B10BF0100004
:102F500020B145F4806510202168086106F020004A
:102F600040B10BF0080028B1082021680861204614
:102F700000F0A4FC06F0100038B12068006900F0F1
:102F8000030010B1204600F09AFC06F4003040B176
:102F900009F0100028B1102021684860204600F098
:102FA0008FFC06F4803040B109F0080028B10820F9
:102FB00021684860204600F0B9FC06F4004088B360
:102FC00009F0040078B306F4807020B108F0010025
:102FD00008B145F0010506F4007020B108F00200C8
:102FE00008B145F0020506F4806020B108F0040045
:102FF00008B145F0040506F40060A0B108F07000C7
:1030000088B108F07000402817D006DC10280BD0DB
:1030100020280CD0302819D10CE0502810D060287E
:1030200014D110E01DE019E045F008050FE045F06F
:1030300010050CE045F0200509E045F0400506E0EC
:1030400045F0800503E045F4807500E000BF00BF57
:103050002068806920F07000216888610420216860
:1030600048602DB1606A284360622046FFF71CFE6D
:10307000BDE8F09F70B504460CB9012070BD94F80E
:10308000200010B9204600F0AFF82068006820F05A
:1030900002002168086000F075FF05460DE000F0B1
:1030A00071FF401B0A2808D9606A40F40030606252
:1030B000052084F820000120E0E72068406800F047
:1030C00002000028EBD12068006840F00100216870
:1030D000086000F057FF05460DE000F053FF401B6D
:1030E0000A2808D9606A40F400306062052084F83C
:1030F00020000120C2E72068406800F0010000289D
:10310000EBD0207E012806D12068006840F08000C6
:103110002168086005E02068006820F080002168D0
:103120000860607E012806D12068006840F04000F9
:103130002168086005E02068006820F040002168F0
:103140000860A07E012806D12068006840F02000B9
:103150002168086005E02068006820F020002168F0
:103160000860E07E012806D12068006820F0100089
:103170002168086005E02068006840F010002168C0
:103180000860207F012806D12068006840F0080010
:103190002168086005E02068006820F008002168C8
:1031A0000860607F012806D12068006840F00400B4
:1031B0002168086005E02068006820F004002168AC
:1031C0000860D4E9020108432169084361690843A2
:1031D0006168491E08432168C861002060620120BF
:1031E00084F82000002049E710B586B00446142179
:1031F00001A8FDF744FA4E492068884241D14D4864
:103200000068401C4B4908600846006801280FD13F
:1032100000BF002000904848006840F00070464918
:1032200008600846006800F00070009000BF00BF12
:1032300000BF0020009040481038006840F00800AF
:103240003D49103908600846006800F00800009009
:1032500000BF00BF032001900220029000200390D5
:10326000032004900920059001A9344800F084FD52
:1032700000220621142001F021FB142001F00EFB96
:1032800054E02F492068884250D100BF00200090B0
:103290002948006840F080602749086008460068B7
:1032A00000F08060009000BF00BF22480068401C12
:1032B000204908600846006801280FD100BF00209F
:1032C00000901D48006840F000701B4908600846E7
:1032D000006800F00070009000BF00BF00BF002039
:1032E000009015481038006840F00200124910396B
:1032F00008600846006800F00200009000BF00BFB0
:10330000602001900220029000200390032004908E
:103310000920059001A90B4800F02EFD002206218E
:10332000402001F0CBFA402001F0B8FA06B010BD01
:10333000006400403000002040380240000C024091
:1033400000680040000402407047000010B58AB0D9
:103350000446FC48844274D101AB03AA00212046F4
:10336000FFF7A3FC40F212220398811A904269D021
:1033700011DC40F20322A0EB020190421AD005DCDE
:10338000A0F20120A0B101287DD112E0012912D0C4
:103390000E29F9D101E1072976D004DC012974D086
:1033A0000629F1D14FE0102970D01129ECD18BE121
:1033B00000BF00BF00BF0398401EE34908700846E5
:1033C000007800EB8000E14931F8100000B2DE49DE
:1033D000097801EB8101DD4A02EB410108819DF88A
:1033E00005009DF8041040EA0120D749097801EB57
:1033F000810122F811009DF807009DF8061040EAAF
:10340000012000B2D049097801EB810102EB4101B2
:1034100048809DF809009DF8081040EA012000B29C
:10342000C949097801EB810102EB410188809DF8CF
:103430000A00C549097801EB810102EB410188715D
:103440006AE16BE1F6E09DF805009DF8041040EAA2
:10345000012001B2BE48A0F898139DF807009DF81E
:10346000061040EA012000B200EE100AB8EEC00AD1
:10347000B84880EDB70A9DF809009DF8081040EAA9
:10348000012000B203E046E154E015E0FDE000EE6B
:10349000100AB8EEC00AAF4880EDB80A9DF80B00DC
:1034A0009DF80A1040EA012000B2A949A1F8E806F7
:1034B0000020A94908602FE19DF805009DF804103F
:1034C00040EA012000EE100AB8EEC00AA14880EDE3
:1034D000F20A9DF807009DF8061040EA012000EE70
:1034E000100AB8EEC00A9B4880EDF30A90EDF20A8C
:1034F000DFED9A0AB4EEE00AF1EE10FA07DD90ED86
:10350000F20ADFED970A30EE600A80EDF20A914888
:1035100090EDF30ADFED910AB4EEE00AF1EE10FA55
:1035200007DD90EDF30ADFED8E0A30EE600A80EDE4
:10353000F30AF1E09DF805009DF8041040EA01202F
:1035400000EE100AB8EEC00ADFED860A80EE201AFF
:10355000804880EDBB1A9DF807009DF8061040EAF0
:10356000012000B27A49A1F8F2069DF809009DF801
:10357000081040EA012000B27549A1F8F4069DF850
:103580000B009DF80A1040EA012000B27049A1F832
:10359000F006002074490860BEE09DF804009DF824
:1035A000051040EA012000EE100AB8EEC00ADFED77
:1035B0006D0A80EE201A6D4880ED001A9DF8060015
:1035C0009DF8071040EA012000EE100AB8EEC00A8C
:1035D000DFED640A80EE201A644880ED011A90ED58
:1035E000000AD0ED020A20EE200A80ED030A9DF8C1
:1035F00008009DF8091040EA012000EE100AB8EE1C
:10360000C00ADFED580A80EE201A584880ED021AF1
:103610009DF80A009DF80B1040EA012000EE100A08
:10362000B8EEC00ADFED4F0A80EE201A4F4880ED59
:10363000031A71E09DF804009DF8051040EA01208E
:1036400000EE100AB8EEC00ADFED460A80EE201A3E
:10365000474880ED001A9DF806009DF8071040EAE3
:10366000012000EE100AB8EEC00ADFED3E0A80EE3F
:10367000201A3F4880ED021A90ED000AD0ED020AB0
:1036800020EE200A80ED030A46E09DF804009DF834
:10369000051040EA0120374908809DF806009DF892
:1036A000071040EA0120334948809DF808009DF842
:1036B000091040EA01202F4988809DF80A0088718E
:1036C0009DF80B00C87127E09DF804009DF80510D7
:1036D00040EA0120284908809DF806102648807895
:1036E00061F30600244988709DF80710224880780D
:1036F00061F3C710204988709DF80800C8709DF8D4
:10370000090008719DF80A004871002088719DF831
:103710000B00C87100E000BF00BF00BF1748844223
:1037200074D101AB03AA00212046FFF7BEFA03982B
:10373000A0F2052020B3012845D0022868D0032834
:103740007DD18AE0DC090020E00000206416002022
:1037500034170020341B0020F40000200060EA46EB
:1037600000FF7F470000C842F0000020B416002090
:10377000C4160020A4000020AC000020040A002091
:103780004A48008800B2494908819DF805009DF823
:10379000041040EA0120454908809DF807009DF883
:1037A000061040EA012000B2404948809DF8090017
:1037B0009DF8081040EA012000B23C4988809DF83D
:1037C0000A0088716DE03A48008800B238490881E3
:1037D0009DF805009DF8041040EA01203449088056
:1037E0009DF807009DF8061040EA012000B230491C
:1037F00048809DF809009DF8081040EA012000B2B9
:103800002B4988809DF80A0088714AE04BE0FFE769
:103810002848008800B2274908819DF805009DF8D6
:10382000041040EA0120234908809DF807009DF814
:10383000061040EA012000B21E49488000E02FE057
:103840009DF809009DF8081040EA012000B21949CE
:1038500088809DF80A00887123E01748008800B22C
:10386000154908819DF805009DF8041040EA0120E3
:10387000114908809DF807009DF8061040EA0120D4
:1038800000B20D4948809DF809009DF8081040EAF3
:10389000012000B2084988809DF80A00887100E084
:1038A00000BF00BF00BF0AB010BD00008C16002092
:1038B00096160020AA160020A01600207047704718
:1038C000704770B5044694F82000012822D10220E8
:1038D00084F820002068006820F00100216808605A
:1038E00000F050FB05460DE000F04CFB401B0A28A1
:1038F00008D9606A40F400306062052084F8200036
:10390000012070BD2068406800F001000028EBD164
:103910006062F6E7606A40F4002060620120F0E730
:10392000704770477047704770477047704710B5D1
:1039300004460CB9012010BD607920B90020207127
:10394000204600F007F8022060710120607100201D
:10395000F1E7000008B50A4A016891420FD100BFA3
:10396000002100910749096841F48051054A11601E
:103970001146096801F48051009100BF00BF08BDE5
:103980000030024030380240F8B504460020009074
:103990008C4800684FF41651B0FBF1F7A56D2E6806
:1039A00094F85C1008208840304098B12068006886
:1039B00000F0040070B12068006820F00400216865
:1039C000086094F85C1008208840A860606D40F0A2
:1039D0000100606594F85C1001208840304068B1B7
:1039E0002068406900F0800040B194F85C1001202C
:1039F0008840A860606D40F00200606594F85C103B
:103A000004208840304068B12068006800F002005F
:103A100040B194F85C1004208840A860606D40F0CC
:103A20000400606594F85C1010208840304078B342
:103A30002068006800F0080050B394F85C10102073
:103A40008840A8602068006800F4802080B1206869
:103A5000006800F4002028B9206CC8B12046216C11
:103A6000884715E0A06C98B12046A16C88470FE00C
:103A70002068006800F4807028B92068006820F091
:103A8000080021680860206C10B12046216C88472E
:103A900094F85C10202088403040002865D02068D1
:103AA000006800F0100000285FD094F85C1020201F
:103AB0008840A86094F83500052828D1206800685F
:103AC00020F01600216808602068406920F080001E
:103AD00021684861206C08B9A06C28B12068006892
:103AE00020F008002168086094F85C103F208840AE
:103AF000A86000BF002084F8340000BF012084F8D3
:103B00003500206D10B12046216D8847F8BD206832
:103B1000006800F4802080B12068006800F4002074
:103B200028B9606C10B12046616C88471DE0E06BDD
:103B3000D8B12046E16B884717E02068006800F4A0
:103B4000807068B92068006820F010002168086063
:103B500000BF002084F8340000BF012084F8350045
:103B6000E06B10B12046E16B8847606D38B3606D43
:103B700000F00100F0B1052084F8350020680068ED
:103B800020F001002168086000BF0098401C0090F0
:103B9000B84200D905E02068006800F00100002864
:103BA000F3D100BF00BF002084F8340000BF012023
:103BB00084F83500E06C10B12046E16C884700BF06
:103BC000A4E70000400000202DE9F0410446002554
:103BD00000F0D8F9074614B90120BDE8F081606A09
:103BE00000B100BF00BF002084F8340000BF0220F5
:103BF00084F835002068006820F001002168086022
:103C00000AE000F0BFF9C01B052805D92020606537
:103C1000032084F83500E0E72068006800F0010028
:103C20000028EED12068056821480540D4E901014B
:103C30000843E16808432169084361690843A169B1
:103C40000843E1690843216A08430543606A042880
:103C500003D1D4E90B0108430543206805602068BF
:103C6000456925F00705606A0543606A04280DD19F
:103C7000A06A0543E06A48B12046FEF703FC28B17C
:103C800040206065012084F83500A6E72068456182
:103C90002046FEF7DDFB064694F85C103F20884086
:103CA000B06000206065012084F83500002094E7B2
:103CB0003F8010F010B50446102C11D11F48007839
:103CC00040F001001D4908701D48007840F00100D7
:103CD0001B4908701B48007870B30DF0C7FC2BE03F
:103CE000202C0BD11848007840F0010016490870CC
:103CF0001448007800B30DF0B9FC1DE0082C06D183
:103D00001248007840F001001049087014E0012CBE
:103D100012D110F02DF901280ED00D490D48006880
:103D20000FF006FB0A48006830B120070A49086016
:103D3000BFF34F8FBFF36F8F10BD00005A010020FB
:103D40005B0100205D010020590100205C01002082
:103D5000D00100203401002004ED00E010B504463D
:103D600004480068204020B1024804602046FFF764
:103D7000A1FF10BD143C0140F8B502460B460025DA
:103D8000002400200021DCE0012606FA01F51E686F
:103D900006EA0504AC4273D15E68022E02D05E686A
:103DA000122E13D1CF0802F1200656F827004E0735
:103DB000F70E0F26BE40B0434F07FF0E1E69BE40F0
:103DC0003043CF0802F1200646F8270010684F0064
:103DD0000326BE40B0431E7906F003064F00BE40E6
:103DE000304310605E68012E08D05E68022E05D058
:103DF0005E68112E02D05E68122E13D190684F00BB
:103E00000326BE40B0434F00DE68BE4030439060A2
:103E1000506801268E40B0431E79C6F300168E40CE
:103E200030435060D0684F000326BE40B0434F007F
:103E30009E68BE403043D0605E6806F08056B6F1A2
:103E4000805F7DD100BF00260096404E366846F464
:103E500080463E4F3E603E46366806F480460096F9
:103E600000BF00BF3A4E8F0856F827008E07370F65
:103E70000F26BE40B043374EB24202D1002624E0A6
:103E80005EE0354EB24201D101261EE0334EB24211
:103E900001D1022619E0324EB24201D1032614E0CC
:103EA000304EB24201D104260FE02F4EB24201D172
:103EB00005260AE02D4EB24201D1062605E02C4E21
:103EC000B24201D1072600E008268F073F0FBE400F
:103ED00030431F4E8F0846F82700264E3068A04317
:103EE0005E6806F48036B6F5803F00D12043214E4F
:103EF0003060361D3068A0435E6806F40036B6F5C3
:103F0000003F00D120431B4E361D3060361D306807
:103F1000A0435E6806F48016B6F5801F00D12043EA
:103F2000144E08363060361D3068A0435E6806F4D3
:103F30000016B6F5001F00D120430E4E0C3630603F
:103F4000491C1029FFF420AFF8BD0000443802409E
:103F5000083801400000024000040240000802400E
:103F6000000C024000100240001402400018024001
:103F7000001C0240003C01400AB1816101E00B04D9
:103F800083617047014800687047000010020020FC
:103F900070B504460CB9012070BD94F83D0028B9F5
:103FA000002084F83C00204600F0FAFA242084F82F
:103FB0003D002068006820F001002168086001F0E1
:103FC000CBFA05465C496068884206D85B48854262
:103FD00001D2012007E0002005E05948854201D2C6
:103FE000012000E00020012800D1D5E75548B5FBAD
:103FF000F0F62068406820F03F00304321684860B8
:104000004D496068884201D8701C07E04FF49670F3
:1040100070434FF47A71B0FBF1F0401C2168096ADB
:1040200021F03F01084321680862434960688842E3
:1040300014D8681E61684900B0FBF1F0401CC0F361
:104040000B00042801D204203DE0681E616849008D
:10405000B0FBF1F0401CC0F30B0034E0A06838B9AD
:10406000681E616801EB4101B0FBF1F0401C0AE001
:10407000681E616801EBC10202EB0111B0FBF1F0B7
:10408000401C40F48040C0F30B0008B901201AE046
:10409000A06848B9681E616801EB4101B0FBF1F00E
:1040A000401CC0F30B000CE0681E616801EBC1020C
:1040B00002EB0111B0FBF1F0401CC0F30B0040F427
:1040C000804040F400402168C9694CF6FF7291437A
:1040D00008432168C861D4E90701084321680968D9
:1040E00021F0C001084321680860D4E903100843A7
:1040F0002168896848F2FF3291430843216888604B
:10410000D4E9050108432168C96821F0FF0108438B
:104110002168C8602068006840F0010021680860DC
:1041200000202064202084F83D000020206384F8D3
:104130003E0000BF30E70000A086010080841E0022
:1041400000093D0040420F002DE9FC5F04460F4688
:1041500090469946DDE90CAB0E9EFFF713FF05462E
:1041600094F83D00202870D119230122B04920463F
:10417000009502F085FF10B10220BDE8FC9F00BF52
:1041800094F83C00012801D10220F6E7012084F8D0
:104190003C0000BF2068006800F0010028B92068DA
:1041A000006840F00100216808602068006820F481
:1041B000006021680860222084F83D00402084F8D7
:1041C0003E0000202064C4F824A0A4F82AB0608D2A
:1041D00020859848E0624B46424639462046CDE964
:1041E000006502F01DFE08B10120C6E7208D88B9E8
:1041F00000BF00200190206840690190206880691C
:10420000019000BF00BF2068006840F40070216882
:10421000086040E0208D012818D12068006820F453
:1042200080602168086000BF00200190206840691C
:10423000019020688069019000BF00BF206800687D
:1042400040F400702168086025E0EFE0208D02282E
:1042500016D12068006820F480602168086020681A
:10426000006840F400602168086000BF00200190F1
:1042700020684069019020688069019000BF0AE0D1
:1042800000BF00200190206840690190206880698B
:10429000019000BF00BFBAE0208D03287ED8208D9A
:1042A000012815D12A463146204602F08EFF08B17A
:1042B000012062E720680069616A0870606A401C3A
:1042C0006062208D401E2085608D401E60859EE0CE
:1042D000208D02282AD133460022574920460095D6
:1042E00002F0CEFE08B1012047E72068006840F4E4
:1042F00000702168086020680069616A0870606A5F
:10430000401C6062208D401E2085608D401E6085AF
:1043100020680069616A0870606A401C6062208DD4
:10432000401E2085608D401E608570E0334600226F
:1043300041492046009502F0A3FE08B101201CE788
:104340002068006820F480602168086020680069A7
:10435000616A0870606A401C6062208D401E208582
:10436000608D401E6085334600223349204600950B
:1043700002F086FE08B10120FFE62068006840F4E4
:1043800000702168086020680069616A0870606ACE
:10439000401C6062208D401E208500E010E0608D92
:1043A000401E608520680069616A0870606A401C70
:1043B0006062208D401E2085608D401E608526E055
:1043C0002A463146204602F000FF08B10120D4E61B
:1043D00020680069616A0870606A401C6062208D14
:1043E000401E2085608D401E608520684069C0F3B6
:1043F000800060B120680069616A0870606A401CD2
:104400006062208D401E2085608D401E6085208D5D
:1044100000287FF441AF202084F83D00002084F87C
:104420003E0000BF84F83C0000BFA6E60220A4E6E0
:10443000020010000000FFFF040001002DE9FC5FF6
:1044400004460F4690469946DDE90CAB0E9EFFF7F9
:1044500099FD054694F83D0020287DD119230122BD
:104460004D492046009502F00BFE10B10220BDE838
:10447000FC9F00BF94F83C00012801D10220F6E720
:10448000012084F83C0000BF2068006800F00100B3
:1044900028B92068006840F00100216808602068A1
:1044A000006820F4006021680860212084F83D0045
:1044B000402084F83E0000202064C4F824A0A4F822
:1044C0002AB0608D20853548E0624B464246394629
:1044D0002046CDE9006502F03FFD08B10120C6E7A6
:1044E00031E02A463146204602F0AFFE50B1206C42
:1044F000042805D12068006840F400702168086035
:104500000120B4E7606A007821680861606A401C95
:104510006062208D401E2085608D401E6085206871
:104520004069C0F3800070B1208D60B1606A00788E
:1045300021680861606A401C6062208D401E2085F1
:10454000608D401E6085208D0028CAD12A463146E4
:10455000204602F067FD00E01CE050B1206C04280A
:1045600005D12068006840F40070216808600120CF
:104570007DE72068006840F4007021680860202012
:1045800084F83D00002084F83E0000BF84F83C0021
:1045900000BF6CE702206AE7020010000000FFFF86
:1045A00010B586B00446142101A8FCF768F87349D9
:1045B0002068884230D100BF002000907048006819
:1045C00040F002006E4908600846006800F00200F2
:1045D000009000BF00BF4FF4407001901220029085
:1045E00001200390032004900420059001A9654850
:1045F000FFF7C2FB00BF0020009061481030006848
:1046000040F400105E49103108600846006800F46C
:104610000010009000BFAFE05B492068884259D18C
:1046200000BF002000905648006840F02000544928
:1046300008600846006800F02000009000BF00BF3E
:104640000320019012200290012003900320049087
:104650000420059001A94D48FFF78EFB00BF002004
:10466000009047481030006840F480004449103101
:1046700008600846006800F48000009000BF00BF9A
:104680004348444908604FF0606048604021414819
:1046900081600021C1604FF48061016100214161AE
:1046A0008161C1614FF40031016200214162FFF775
:1046B0008BFA08B1FDF750FF00BF36486063846392
:1046C00000BF35480068406840F40060324909681E
:1046D000486051E03149206888424DD100BF002038
:1046E00000902748006840F004002549086008460B
:1046F000006800F00400009000BF00BF00BF002071
:1047000000900846006840F0010008600846006814
:1047100000F00100009000BF00BF4815019012207A
:10472000029001200390032004900420059001A929
:104730001B48FFF721FB4FF480700190122002907C
:1047400001200390032004900420059001A915483E
:10475000FFF712FB00BF00200090094810300068EE
:1047600040F400000649103108600846006800F473
:104770000000009000BF00BF06B010BD0054004014
:10478000303802400004024000580040001402404B
:10479000B8600240280B0020800A0020005C004026
:1047A00000080240000002400348006803490978FD
:1047B00008440149086070471002002018020020D8
:1047C00010B50D48006840F400700B4908600846B9
:1047D000006840F4806008600846006840F480701B
:1047E0000860032000F0A8F80F2000F007F800F0A0
:1047F0002BF8002010BD0000003C024070B50446BC
:104800000E4800784FF47A71B1FBF0F00C4909685A
:10481000B1FBF0F5284601F046FC08B1012070BD5F
:10482000102C07D200222146501E00F047F8054800
:10483000046001E00120F2E70020F0E71802002008
:10484000400000201402002008B500BF00200090A6
:104850001148006840F480400F490860084600682D
:1048600000F48040009000BF00BF00BF0020009017
:10487000081F006840F08050091F08600846006863
:1048800000F08050009000BF00BF00220F21901E5A
:1048900000F014F808BD0000443802400146084604
:1048A000002809DB00F01F0301229A4043099B0006
:1048B00003F1E023C3F8002100BF70472DE9F05F4A
:1048C00080460D461646002709F04EF90746394640
:1048D0002A46334601F00700C0F1070ABAF1040F77
:1048E00002D94FF0040A01E0C0F1070AD14600F1F5
:1048F000040ABAF1070F02D24FF0000A01E0A0F15A
:10490000030AD4464FF0010A0AFA09FAAAF1010A89
:104910000AEA020A0AFA0CFA4FF0010B0BFA0CFB36
:10492000ABF1010B0BEA030B4AEA0B0421464046AC
:1049300009F022F9BDE8F09F00BF00F00702064B26
:1049400019684FF6FF031940044B0B4343EA022159
:10495000014B196000BF70470CED00E00000FA0544
:10496000704710B50446D4F8040408F015F810BDDB
:1049700070B504460D46C5EBC50304F13C0101EBDF
:104980008301CA682946D4F8040407F032FF70BDD9
:1049900070B504460D46C5EBC50304F5FE7101EB89
:1049A0008301CA682946D4F8040407F0A2FF70BD49
:1049B00010B50446D4F8040407F0F1FF10BD70B53B
:1049C00004460E4606F00F006168884201D90120B6
:1049D00070BD06F0800080280AD106F00F00C0EB01
:1049E000C00104F13C0000EB81050120687009E082
:1049F00006F00F00C0EBC00104F5FE7000EB81056E
:104A0000002068700020A87006F00F00287000BF1A
:104A100094F8BC03012801D10220D9E7012084F8D1
:104A2000BC0300BF2946206808F012FD00BF00202B
:104A300084F8BC0300BF00BFCAE72DE9F047054674
:104A40000E4690461F464FF0000906F08000802871
:104A50000AD106F00F00C0EBC00105F13C0000EBED
:104A600081040120607009E006F00F00C0EBC00176
:104A700005F5FE7000EB81040020607006F00F0069
:104A80002070C4F80880E770607808B12078E08072
:104A9000022F01D10020207100BF95F8BC0301282E
:104AA00002D10220BDE8F087012085F8BC0300BFD9
:104AB0002146286808F01CFB00BF002085F8BC03D5
:104AC00000BF4846EEE72DE9F04104460E46174682
:104AD000984606F00F00C0EBC00104F5FE7000EB35
:104AE0008105EF60C5F814800020A861687006F0A9
:104AF0000F0028702069012800D12F6106F00F00F7
:104B000028B9227C2946206808F07EFB04E0227C3C
:104B10002946206808F030FD0020BDE8F08170B51E
:104B200004460D4605F00F006168884201D9012056
:104B300070BD05F0800080280AD105F00F00C0EBA1
:104B4000C00104F13C0000EB81060120707007E019
:104B5000C5EBC50104F5FE7000EB81060020707006
:104B60000120B07005F00F00307000BF94F8BC0356
:104B7000012801D10220DBE7012084F8BC0300BF3B
:104B80003146206808F0ABFC05F00F0028B9217C05
:104B900004F57172206808F023FC00BF002084F83F
:104BA000BC0300BF00BFC3E72DE9F04104460E4639
:104BB0001746984606F00F00C0EBC00104F13C0018
:104BC00000EB8105EF60C5F814800020A86101208A
:104BD000687006F00F0028702069012800D12F614D
:104BE00006F00F0028B9227C2946206808F00CFB4B
:104BF00004E0227C2946206808F0BEFC0020BDE8C5
:104C0000F0812DE9FE4F044620680290029E206844
:104C100008F07FFE00287DD1206808F0B9FE08B9B1
:104C2000BDE8FE8F206808F0B3FE00F00200022805
:104C300005D12068406900F00200216848612068C1
:104C400008F0A6FE00F40020B0F5002F58D1002592
:104C5000206808F06DFE82464FE00AF0010000284F
:104C600048D0E9B2206808F086FE804608F00100CE
:104C700048B1012106F5306000EB451081602946FE
:104C8000204603F039FC08F00800082809D129461D
:104C9000204603F0EBFB082106F5306000EB4510E1
:104CA000816008F01000102805D1102106F5306051
:104CB00000EB4510816008F0200020280ED120690B
:104CC000012805D104F571720121206808F088FBE4
:104CD000202106F5306000EB4510816008F400509B
:104CE000B0F5005F06D14FF4005106F5306000EBDF
:104CF000451081606D1C4FEA5A0ABAF1000FACD121
:104D0000206808F045FE00F48020B0F5802F7ED1A9
:104D1000206800E012E208F001FE8246002586E0ED
:104D20000AF0010000287FD0E9B2206808F00AFEEE
:104D3000804608F00100E8B305F00F01012088402B
:104D4000019040F634008159019821EA000040F6B4
:104D500034018851012106F5106000EB4510816097
:104D60002069012815D1C5EBC50104F13C0000EB19
:104D70008100C5EBC502C16804F13C0000EB820074
:104D800080680144C5EBC50204F13C0000EB8200E1
:104D9000C160E9B22046FFF7EBFD2069012810D180
:104DA00045B9C5EBC50104F13C0000EB8100406949
:104DB00000B900E005E004F571720121206808F0F7
:104DC0000FFB08F00800082805D1082106F510603F
:104DD00000EB4510816008F01000102805D110216B
:104DE00006F5106000EB4510816008F04000402897
:104DF00005D1402106F5106000EB4510816008F0F8
:104E00000200022808D1022106F5106001E012E03C
:104E10000AE000EB4510816008F08000802803D193
:104E20002946204603F028FC6D1C4FEA5A0ABAF1C5
:104E3000000F7FF475AF206808F0AAFD00F0004075
:104E4000B0F1004F1CD140F60400805920F0010160
:104E500040F60400815194F8F403012807D10020A2
:104E600084F8F40300212046FFF77AFD02E0204693
:104E700000F090F92068406900F000402168486126
:104E8000206808F085FD00F40060B0F5006F0ED1D9
:104E900040F60800805900F0010010B1204600F0F3
:104EA000ABF92068406900F400602168486120681F
:104EB00008F06EFD00F48050B0F5805F72D140F6CE
:104EC0000400805920F0010140F6040081511021B6
:104ED000206808F0F3FC002726E04FF67F3106F546
:104EE000106000EB4710816006F5106000EB471082
:104EF000006820F4001106F5106000EB4710016017
:104F00004FF67F3106F5306000EB4710816006F503
:104F1000306000EB4710006820F4001106F53060A7
:104F200000EB471001607F1C6068B842D5D840F69E
:104F30001C00805940F0011140F61C008151206B8B
:104F400070B1D6F8840840F00B01C6F8841840F61A
:104F50004400805940F00B0140F6440081510FE0BD
:104F600040F61400805942F22B01084340F6140128
:104F70008851081F805940F00B014FF401608151A6
:104F8000D6F8000820F4FE60C6F80008217C04F57D
:104F90007172206808F024FA2068406900F480509B
:104FA00021684861206808F0F3FC00F40050B0F577
:104FB000005F17D1206808F003F9206808F096FC1C
:104FC000E06000F0C3FA0090227B2068009908F0AE
:104FD0000BFD204600F0C6F82068406900F4005040
:104FE00021684861206808F0D3FC00F01000102808
:104FF00046D12068806920F01000216888610298FD
:10500000D0F8209009F00F00C0EBC00104F5FE704D
:1050100000EB810BC9F3434002281AD147F6F07028
:1050200009EA000030B3C9F30A12DBF80C10029849
:1050300008F0B3FCC9F30A11DBF80C000844CBF804
:105040000C00C9F30A11DBF818000844CBF818006B
:1050500010E0C9F3434006280CD1082204F5717111
:10506000029808F09AFCC9F30A11DBF8180008440A
:10507000CBF818002068806940F010002168886132
:10508000206808F085FC00F00800082808D12046B8
:1050900000F087F82068406900F008002168486146
:1050A000206808F075FC00F48010B0F5801F0AD16C
:1050B00000252946204600F043F82068406900F4A6
:1050C000801021684861206808F062FC00F400103C
:1050D000B0F5001F0AD100252946204600F039F816
:1050E0002068406900F4001021684861206808F0D9
:1050F0004FFC00F08040B0F1804F08D12046FFF710
:1051000030FC2068406900F08040216848612068D8
:1051100008F03EFC00F0040004280FD12068D0F80D
:10512000049009F00400042802D12046FFF740FC57
:105130002068406840EA09002168486000BF6FE5C8
:1051400070B504460D462946D4F8040407F050FC17
:1051500070BD70B504460D462946D4F8040407F026
:105160004AFC70BD70B504460125E06808B9002509
:1051700006E0E068022801D1012501E0FDF7ECF925
:105180002946D4F8040407F0AFFCD4F8040407F06F
:1051900065FC70BD10B50446D4F8040407F08CFC1F
:1051A00010BD10B50446D4F8040407F08CFC10BD03
:1051B00070B504460D4600BF94F8BC03012801D128
:1051C000022070BD012084F8BC0300BF84F8385071
:1051D0002946206808F0F2FB00BF002084F8BC03D9
:1051E00000BF00BFEDE710B5044604F57171D4F8B7
:1051F000040407F090FC10BD10B50446D4F8040474
:1052000007F0D3FC2068D0F8000E40F001002168C0
:10521000C1F8000E206A28B10348006840F006007B
:105220000149086010BD000010ED00E0F8B504462B
:1052300000250026207800F0010020B9207800F039
:10524000040004282FD100205B498866FEF79AFEEF
:10525000054606E0FEF796FE401B022801D9032012
:10526000F8BD56480068C0F3C0600028F2D16068FD
:105270008101207A41EA00705049843108600120A0
:105280004D498866FEF77EFE054606E0FEF77AFE8B
:10529000401B022801D90320E2E748480068C0F318
:1052A000C0600028F2D0207800F0020002287DD1F2
:1052B00000BF0020009041484030006840F080501E
:1052C0003E49403108600846006800F08050009078
:1052D00000BF00BF3A48006840F480703849086059
:1052E000FEF750FE054606E0FEF74CFE401B022886
:1052F00001D90320B4E73248006800F48070002828
:10530000F2D02E487030006800F440764EB3A08989
:1053100000F44070B04224D028487030006820F477
:10532000407601202749086000200860234870303B
:105330000660006800F0010098B1FEF723FE054604
:1053400008E0FEF71FFE401B41F28831884201D978
:10535000032085E7194870300068C0F3400000283A
:10536000EFD000BFA08900F44070B0F5407F0CD1B1
:1053700012480830006820F4F810134AE168114020
:1053800008430E490831086007E00C4808300068FF
:1053900020F4F810094908310860084870300068A6
:1053A000A189C1F30B010843044900E002E0703118
:1053B000086000BF002053E7000047420038024069
:1053C00000700040400E4742FFFCFF0F70B50446DE
:1053D0000D460CB9012070BD5848006800F00F0060
:1053E000A84209D255490D700846006800F00F0028
:1053F000A84201D00120EEE7207800F00200022848
:105400001DD1207800F00400042805D14C48006824
:1054100040F4E0504A490860207800F0080008286D
:1054200005D14748006840F4604045490860444859
:10543000006820F0F000A168084341490860207826
:1054400000F00100A8B36068012807D13C48083883
:105450000068C0F34040B8B90120BCE7606802288A
:1054600002D06068032807D1354808380068C0F3C7
:10547000406048B90120AEE7314808380068C0F301
:10548000400008B90120A6E72D48006820F003007D
:10549000616808432A490860FEF774FD064609E082
:1054A000FEF770FD801B41F28831884202D903204B
:1054B00091E707E02248006800F00C006168B0EB5B
:1054C000810FEDD11D48006800F00F00A84209D9F6
:1054D0001A490D700846006800F00F00A84201D07C
:1054E000012078E7207800F00400042807D1144850
:1054F000006820F4E050E168084311490860207812
:1055000000F00800082808D10D48006820F4604029
:10551000216940EAC1000A49086000F03DF80849E5
:105520000968C1F30311074A515CC8400649086085
:105530000F20FFF763F900204DE70000003C024018
:10554000083802408C6001084000002001480068D3
:10555000704700004000002000B5FFF7F7FF044946
:105560000968C1F38221034A515CC84000BD0000B4
:10557000083802409C60010800B5FFF7E7FF0449C6
:105580000968C1F34231034A515CC84000BD0000C4
:10559000083802409C6001082DE9F04700240025EE
:1055A0000026A1462548006800F00C0020B1042820
:1055B00005D008283AD105E0DFF8849039E0DFF81B
:1055C000849036E01D48001F006800F03F041B482F
:1055D000001F006800F4800078B11A481749091FBD
:1055E0000968C1F38811A0FB01700146224600231F
:1055F0003846FAF72FFF05460EE011480F49091FFC
:105600000968C1F38811A0FB0170014622460023FE
:105610003846FAF71FFF05460848001F0068C0F328
:105620000140401C4600B5FBF6F902E0DFF810909F
:1056300000BF00BF4846BDE8F087000008380240C0
:105640000024F400001BB700F8B504460CB9012093
:10565000F8BD207800F00100002874D0F9480068F7
:1056600000F00C0004280DD0F648006800F00C0093
:10567000082813D1F348001F006800F48000B0F53B
:10568000800F0BD1EF4808380068C0F34040002875
:1056900059D06068002856D10120D9E700BF606862
:1056A000B0F5803F08D1E7480838006840F4803002
:1056B000E449083908601EE06068B0F5A02F0DD1FC
:1056C000E0480838006840F48020DE490839086066
:1056D0000846006840F4803008600CE0D94808387B
:1056E000006820F48030D74908390860084600680F
:1056F00020F48020086000BF606890B1FEF742FC93
:10570000054606E0FEF73EFC401B642801D9032055
:105710009EE7CC4808380068C0F340400028F1D02C
:1057200011E0FEF72FFC054606E0FEF72BFC401BC0
:10573000642801D903208BE7C24808380068C0F309
:1057400040400028F1D1207800F0020002285FD10B
:10575000BC48006800F00C0058B1BA48006800F07E
:105760000C0008281CD1B748001F006800F4800016
:10577000B0B9B44808380068C0F3400020B1E06810
:10578000012801D0012063E7AE480838006820F006
:10579000F800216940EAC100AA490839086037E0E9
:1057A000E06800B30120A8490860FEF7EBFB05465E
:1057B00006E0FEF7E7FB401B022801D9032047E77C
:1057C000A04808380068C0F340000028F1D09D4888
:1057D0000838006820F0F800216940EAC1009949C2
:1057E0000839086014E0002097490860FEF7CAFBFA
:1057F000054606E0FEF7C6FB401B022801D9032040
:1058000026E7904808380068C0F340000028F1D12E
:10581000207800F0080008282CD16069A8B1012088
:105820008A490860FEF7AEFB054606E0FEF7AAFBD4
:10583000401B022801D903200AE782486C30006827
:10584000C0F340000028F1D014E000207F49086038
:10585000FEF798FB054606E0FEF794FB401B022886
:1058600001D90320F4E677486C300068C0F34000AB
:105870000028F1D1207800F00400042870D100261F
:1058800070483830006800F0805090B900BF0020A8
:1058900000906C483830006840F0805069493831D9
:1058A00008600846006800F08050009000BF00BF0C
:1058B00001266748006800F48070B0B96448006849
:1058C00040F4807062490860FEF75CFB054606E024
:1058D000FEF758FB401B022801D90320B8E65C48BC
:1058E000006800F480700028F2D000BFA068012892
:1058F00008D154486830006840F0010051496831CF
:1059000008601DE0A06805280DD14E486830006889
:1059100040F004004B49683108600846006840F0D8
:10592000010008600CE047486830006820F0010082
:105930004449683108600846006820F004000860A7
:1059400000BFA068A8B1FEF71DFB054609E0FEF701
:1059500019FB401B41F28831884202D9032077E6C7
:1059600026E0384868300068C0F340000028EED0D8
:1059700013E0FEF707FB054608E0FEF703FB401BBC
:1059800041F28831884201D9032061E62D48683010
:105990000068C0F340000028EFD1012E07D129484C
:1059A0003830006820F0805026493831086000BF48
:1059B000A069B8B32348006800F00C0008285ED046
:1059C000A069022846D100201F490866FEF7DAFACE
:1059D000054606E0FEF7D6FA401B022801D903204F
:1059E00036E6184808380068C0F340600028F1D156
:1059F000D4E907010843616A40EA81110122A06AE3
:105A0000C2EB500041EA00412C20005D41EA0060F9
:105A10000C49091F086001200B490866FEF7B2FA1D
:105A2000054607E02DE0FEF7ADFA401B022801D93C
:105A300003200DE6034808380068C0F340600028E2
:105A4000F1D01EE00838024000004742800E474275
:105A50000070004000200C490866FEF793FA0546E6
:105A600006E0FEF78FFA401B022801D90320EFE57C
:105A700006480068C0F340600028F2D101E0012030
:105A8000E6E50020E4E5000000004742003802405F
:105A900010B504460CB9012010BD607920B9002072
:105AA0002071204600F00EF8022060712068006826
:105AB00040F0040021680860012060710020A060AF
:105AC00000BFE9E708B50A4A016891420FD100BF5B
:105AD000002100910749096841F04001054A116021
