:020000040800F2
:10000000B0C4002029030008236900082556000811
:1000100021690008D71100087BA500080000000036
:10002000000000000000000000000000690200085D
:10003000611C000800000000C50200080D8D0008CA
:100040004303000843030008430300084303000878
:100050004303000843030008631C0008430300082F
:1000600043030008691C00086F1C000843030008D4
:100070004303000843030008430300084303000848
:100080004303000843030008430300084303000838
:10009000D91100084303000843030008751C000839
:1000A0004303000843030008430300084303000818
:1000B0004303000843030008430300084303000808
:1000C00043030008430300084303000843030008F8
:1000D0004303000843030008430300084194000859
:1000E00043030008430300084303000843030008D8
:1000F0002D8E0008430300084303000885160008FE
:1001000043030008430300084303000843030008B7
:1001100043030008430300084303000843030008A7
:1001200043030008DD160008E91600084303000831
:100130004303000843030008430300084303000887
:10014000E51100084303000843030008256900087F
:10015000A51B0008B11B0008430300084303000867
:100160004303000843030008430300084303000857
:100170004303000843030008430300080000000095
:10018000430300084303000800F002F800F05CF8A5
:100190000AA090E8000C82448344AAF10107DA45E2
:1001A00001D100F051F8AFF2090EBAE80F0013F0D8
:1001B000010F18BFFB1A43F0010318478820010004
:1001C000A82001000A444FF0000C10F8013B13F086
:1001D000070408BF10F8014B1D1108BF10F8015BA0
:1001E000641E05D010F8016B641E01F8016BF9D193
:1001F00013F0080F1EBF10F8014BAD1C0C1B09D1EA
:100200006D1E58BF01F801CBFAD505E014F8016B5B
:1002100001F8016B6D1EF9D59142D6D370470000ED
:100220000023002400250026103A28BF78C1FBD8FF
:10023000520728BF30C148BF0B6070471FB511F08F
:1002400043F91FBD10B510BD00F091FA1146FFF73C
:10025000F5FF0DF04DFD00F0AFFA03B4FFF7F2FF2C
:1002600003BC00F0BFFA00002C4B19680868B0E826
:10027000F04F80F30988BFF36F8F4FF0000080F3D9
:10028000118870470000000008480068006880F38B
:1002900008884FF0000080F3148862B661B6BFF39F
:1002A0004F8FBFF36F8F00DF00BF00BF08ED00E08E
:1002B000DFF80C00016841F470010160704700BF75
:1002C00088ED00E0EFF30980BFF36F8F134B1A68DE
:1002D0001EF0100F08BF20ED108A20E9F04F1060CB
:1002E00009B44FF0500080F31188BFF34F8FBFF374
:1002F0006F8F0EF001FF4FF0000080F3118809BCF2
:1003000019680868B0E8F04F1EF0100F08BFB0EC95
:10031000108A80F30988BFF36F8F7047E0010020D7
:10032000EFF30580704700000948804709480047FF
:10033000FEE7FEE7FEE7FEE7FEE7FEE7FEE7FEE795
:10034000FEE7FEE704480549054A064B70470000F2
:10035000D98D000889010008B0840020B0C40020B5
:10036000B0A40020B0A400209FED1A1AF5EE000AF8
:1003700040EE010ABDEEE00AF5EEC00A10EE100AEA
:10038000F1EE10FA38BF401E00EE100A1349F7EEE6
:10039000001AB8EEC00A30EEC00ADFED0F0A20EEF8
:1003A000200AFCEEC00A10EE900AC0F3080000EE2E
:1003B000900A01EB8000F8EE600A90ED011A70EEF1
:1003C000600A90ED000A71EEE01A21EE800A00EE5C
:1003D000810A704783F9223E000000440419010895
:1003E000DFED190AB5EEC00A60EE200ABDEEE01A94
:1003F00011EE100AF1EE10FA38BF401E00EE100A9E
:100400001349F7EE001AB8EEC00A30EEC00ADFED6D
:100410000F0A60EE200ABCEEE00A10EE100AC0F3EC
:10042000080000EE100A01EB8000B8EE400A90EDE3
:10043000011A70EEC00A90ED000A71EEE01A21EE8A
:10044000800A00EE810A704783F9223E00000044D2
:100450000419010853EA020C00F069802DE9F04B01
:100460004FF00006002B1FBFB3FA83F503FA05F423
:1004700024FA05F65E4012BF1643B2FA82F502FA7C
:1004800005F4C5F120051EBF22FA05FC44EA0C0460
:10049000203556EA044C4FEA144418BF641C4FF050
:1004A00000084FF00009904271EB030C39D300298A
:1004B00019BFB1FA81F701FA07F6B0FA80F700FA2E
:1004C00007F6C7F120071EBF20FA07FC46EA0C0614
:1004D0002037B6FBF4FCA7EB0507103F07F01F0B16
:1004E000CBF120060CFA0BFB2CFA06F644BFB34600
:1004F0000026202FA4BF5E464FF0000B5BEA060CDF
:1005000008BF4FF0010B19EB0B09ABFB027C48EB6A
:100510000608C01B06FB02CC0BFB03CC71EB0C01E5
:10052000C1E70B46024641464846BDE8F08B13B58D
:100530004FF000004FF00001AFF30080BDE81C4019
:10054000704710B5431C02E010F8011B71B1810720
:10055000FAD14FF0013202C88C1A8C4314EAC2114E
:10056000F9D0C01A0A0603D0C01E10BDC01A10BDB3
:100570000A0401D0801E10BD0902FCD0401E10BD2F
:10058000032A40F2308010F0030C00F0158011F8BF
:10059000013BBCF1020F624498BF11F801CB00F897
:1005A000013B38BF11F8013BA2F1040298BF00F8EB
:1005B00001CB38BF00F8013B11F0030300F02580A8
:1005C000083AC0F0088051F8043B083A51F804CBCF
:1005D000A0E80810F5E7121D5CBF51F8043B40F895
:1005E000043BAFF30080D20724BF11F8013B11F8A0
:1005F00001CB48BF11F8012B24BF00F8013B00F8E4
:1006000001CB48BF00F8012B704710B5203AC0F06D
:100610000B80B1E81850203AA0E81850B1E8185003
:10062000A0E81850BFF4F5AF5FEA027C24BFB1E840
:100630001850A0E8185044BF18C918C0BDE81040B1
:100640005FEA827C24BF51F8043B40F8043B08BFBA
:100650007047D20728BF31F8023B48BF11F8012B81
:1006600028BF20F8023B48BF00F8012B704702F07A
:10067000FF0343EA032242EA024200F037B84FF098
:10068000000200B5134694469646203922BFA0E8E2
:100690000C50A0E80C50B1F12001BFF4F7AF0907EE
:1006A00028BFA0E80C5048BF0CC05DF804EB8900DF
:1006B00028BF40F8042B08BF704748BF20F8022B22
:1006C00011F0804F18BF00F8012B7047704770473A
:1006D000704710B500F02EF8006810BD10B5044644
:1006E00000F028F8046010BD4FF000020429C0F0AB
:1006F000128010F0030C3FF4C4AFCCF1040CBCF139
:10070000020F18BF00F8012BA8BF20F8022BA1EBA5
:100710000C01FFF7B6BF5FEAC17C24BF00F8012BD4
:1007200000F8012B48BF00F8012B704700487047C4
:100730005084002000487047508400201FB584B0CA
:1007400000200A9C06AB04AA02A90094AFF3008023
:1007500018B1DDE9020108B010BD0348204000F0E7
:1007600039F800200146F6E70000207C7047754606
:10077000FFF7DCFFAE4605006946534620F0070050
:10078000854618B020B5FFF7DDFDBDE820404FF0ED
:1007900000064FF000074FF000084FF0000B21F06B
:1007A0000701AC46ACE8C009ACE8C009ACE8C00938
:1007B000ACE8C0098D46704710B50446AFF3008021
:1007C0002046BDE81040FFF748BD002801D000F0EA
:1007D00009B8704710B500F025F8BDE81040FFF7E4
:1007E000F4BF000001491820ABBEFEE7260002005E
:1007F00070B505460C460A2000E06D1C00F068F854
:1008000035B128780028F8D102E0641C00F060F8C7
:1008100014B120780028F8D1BDE870400A2000F01B
:1008200057B8000010B5022803D0410103D50DA12F
:1008300012E0002010BD010101D50FA10CE0C100A4
:1008400001D511A108E0810001D512A104E040000A
:1008500001D513A100E0002115A0FFF7C9FF012079
:1008600010BD0000496E76616C6964204F7065723E
:100870006174696F6E0000004469766964652042A6
:1008800079205A65726F00004F766572666C6F77DB
:1008900000000000556E646572666C6F77000000A2
:1008A000496E657861637420526573756C740000DD
:1008B0005349474650453A2041726974686D6574E2
:1008C000696320657863657074696F6E3A20000013
:1008D00008B569468DF800000320ABBE08BDD0ED19
:1008E000000AF4EEC00AF1EE10FA01DD80ED000A14
:1008F000D0ED000AB1EE400AF4EEC00AF1EE10FAB3
:1009000001D280ED000A70474A494A6822F4403219
:100910004A604A6843681A434A6001684A6822F498
:1009200080724A6001684A68036942EA03224A60A9
:1009300001684A6822F040724A6001684A68836828
:100940001A434A6001688A6822F400628A6001687A
:100950008A68C3681A438A60816A6FF07062D14204
:1009600014D001688A6822F070628A6001688A681F
:10097000836A1A438A6001688A6822F040528A605A
:1009800001688A68C36A1A438A6009E001688A6854
:1009900022F070628A6001688A6822F040528A60A0
:1009A00001688A6822F002028A6001688A68037E10
:1009B00042EA43028A6090F8201089B101684A68CF
:1009C00042F400624A6001684A6822F460424A6068
:1009D00001684B68426A521E43EA42324A6004E0B0
:1009E00001684A6822F400624A600168CA6A22F417
:1009F0007002CA620168CB6A828B521E43EA0252BD
:100A0000CA6201688A6822F400728A6001688A6892
:100A100090F8303042EA43228A6001688A6822F402
:100A200080628A6001688A68406942EA8020886042
:100A3000704700000023014009F0DCBD0AF0DCB87B
:100A4000FFF792BCF0EE400AF5EEC00AF1EE10FAA4
:100A500002DDB0EE600A7047B1EE600AFBE700000D
:100A6000002803D09FED020A80ED000A70470000C5
:100A700000000000002803D0B3EE060A80ED000A53
:100A80007047000070B52DED0C8B84B006460C4607
:100A900015469FED990AF0EE408A9FED970AB0EE59
:100AA000409A9FED950AF0EE40BA9FED930AF0EE62
:100AB000409A9FED910AB0EE40AA0EB104B11DB963
:100AC00004B0BDEC0C8B70BD8C48FFF7C9FF8C489F
:100AD000FFF7D0FF8A48D0ED000A9FED8A1A60EE3A
:100AE000810AB0EE600A00F025F9F0EE408A28EEA7
:100AF000A80AF0EE408A8248D0ED000AB0EE001A53
:100B000060EE810A9FED7F1A60EE810AB0EE600A06
:100B100000F010F9B0EE409A29EE090AB0EE409AC2
:100B2000DFED790AB7EE000A00EEA80ADFED770ADA
:100B300000EEC90ADFED760A20EE200A754880ED46
:100B4000000A6E4890ED000ADFED730A80EE201A6D
:100B5000B7EE000A31EE000A20EE000A6D48D0ED33
:100B6000000A80EE801A6D4880ED001A94ED000AAC
:100B7000B5EEC00AF1EE10FA0DD194ED010AB5EE12
:100B8000C00AF1EE10FA06D194ED020AB5EEC00AE1
:100B9000F1EE10FA46D09FED580AB0EE408A0020E0
:100BA000019002900390D4ED000A60EEA00A94ED4B
:100BB000011AD4ED011A41EE210A94ED021AD4ED86
:100BC000021A41EE210AB0EE600A00F0A9F8B0EE78
:100BD000408A94ED000A20EE080A8DED010A94ED9A
:100BE000010A20EE080A8DED020A94ED020A20EEB9
:100BF000080A8DED030ADDED010AF1EE600AB0EEA0
:100C0000600AFFF719FFF0EE409A9DED031AF0EE2F
:100C1000410A9DED021AB0EE410AFFF70FFFB0EE58
:100C200040AA07E09FED340AF0EE409A9FED320AA9
:100C3000B0EE40AA95ED000AB5EEC00AF1EE10FA4A
:100C40000DD195ED010AB5EEC00AF1EE10FA06D10C
:100C500095ED020AB5EEC00AF1EE10FA3CD0B0EE06
:100C6000690A00F067F8B0EE408AB0EE690AFFF753
:100C7000E7FEB0EE40DAB0EE4A0A00F05BF8F0EEC4
:100C800040AAB0EE4A0AFFF7DBFEB0EE40BA28EE0B
:100C90002A0AD5ED010A20EE200AD5ED000A0DEE54
:100CA000200A68EE0B0A95ED021A00EE810AB0EEFA
:100CB00040CA95ED010A20EE0B0AD5ED020A0AEEB4
:100CC000E00AF0EE40CAF0EE6C0AB0EE4C0AFFF714
:100CD000B5FEF0EE40BA03E09FED070AF0EE40BA31
:100CE000B0EE4A1AF0EE690AB0EE6B0A30460BF02D
:100CF00021FA00BFE4E600000000000058020020D6
:100D00005C02002035FA8E3CC1BFAD3B9DF8C53674
:100D10002F7C1C4160020020506CC24A64020020FB
:100D200010B50AF02EFFB7EE001AC1EE000AB0EEC1
:100D3000600A10BDFFF754BB2DE9F0412DED028B89
:100D40009AB00546B0EE408A0E46174698460020F7
:100D50001790189019901490159016904DB146B1B7
:100D60003FB1B8F1000F04D0B5EEC08AF1EE10FA31
:100D700005D100201AB0BDEC028BBDE8F08196EDE4
:100D8000000A8DED170A96ED010A8DED180A96ED11
:100D9000020A8DED190A97ED000A8DED140A97ED00
:100DA000010A8DED150A97ED020A8DED160A17AAB4
:100DB00014A928460AF0F2FF402104A8FFF75FFCBF
:100DC00000200090019002900390002417A904A82D
:100DD0000DF0CCFE00BF30E004A800EB041090ED55
:100DE000000AD5ED000A20EE200A04A800EB04104A
:100DF000D0ED010A95ED011A00EE810A04A800EB7E
:100E00000410D0ED020A95ED021A00EE810A04A842
:100E100000EB0410D0ED030A95ED031A00EE810AF1
:100E200020EE080AF0EE000A80EE201A684600EB79
:100E3000840080ED001A601CC4B2042CCCDB0024BA
:100E400010E005EB840090ED000A684600EB84009A
:100E5000D0ED000A30EE200A05EB840080ED000A98
:100E6000601CC4B2042CECDB28460DF0B9FC012058
:100E700080E7000001221021014802F02DB9000096
:100E80000000024000221021014802F025B90000B4
:100E9000000002407047000001221146014802F0A4
:100EA0001BB900000004024000220121014802F0A9
:100EB00013B900000004024030B5437804781B02E7
:100EC0001BB2234300EE103A1B4CB8EEC00AD4ED1F
:100ED000000A20EE200A81ED000AC37885781B0203
:100EE0001BB22B4300EE103AF8EEC00A94ED000A54
:100EF00060EE800AC1ED010A437904791B021BB23E
:100F0000234300EE903AF8EEE00A20EE800A81EDED
:100F1000020A017AC3790904807941EA0321014375
:100F200000EE101ADFED050AB8EE400A20EE200AA6
:100F300082ED000A30BD00009C01002000401C42F0
:100F400070470CF069BF0CF0D1BB000010B54278BF
:100F50000378120212B21A4300EE102A124BB8EEB6
:100F6000C00AD3ED010A20EE200A81ED000AC27802
:100F70008478120212B2224300EE102AF8EEC00A60
:100F800093ED010A60EE800AC1ED010A4279007911
:100F9000120212B2024300EE902AF8EEE00A20EEAE
:100FA000800A81ED020A10BD9C01002010B5FFF7F8
:100FB00071FFFFF7C5FF0BF009FA08B1802402E0CA
:100FC0000BF076F904460BF0C7FB10B144F040007B
:100FD00010BD0BF053FB204310BD00002DE9FC4178
:100FE00004460D461646002000900190FFF74AFF88
:100FF000922000F0BFF806226946122000F09CF80B
:10100000FFF738FF9DF801009DF80010000200B2C4
:10101000084300EE100A474FB8EEC00AD7ED000AA9
:1010200020EE200A85ED000A9DF803009DF80210CD
:10103000000200B2084300EE100AF8EEC00A97ED75
:10104000000A60EE800AC5ED010A9DF805009DF8D2
:101050000410000200B2084300EE900AF8EEE00A25
:1010600020EE800A85ED020AFFF71EFF082269467E
:10107000002000F061F8FFF70FFF9DF800000F2837
:1010800030D19DF803009DF80210000200B2084321
:1010900000EE100AD7ED010AB8EEC00A20EE200AD1
:1010A00084ED000A9DF805009DF80410000200B2CE
:1010B000084300EE100AF8EEC00A97ED010A60EE50
:1010C000800AC4ED010A9DF807009DF80610000291
:1010D00000B2084300EE900AF8EEE00A20EE800A23
:1010E00084ED020AFFF7CEFEA22000F043F80222B0
:1010F0006946222000F020F8FFF7BCFE9DF80000B2
:101100009DF80110C00040EA5110B0F5806F02DB7D
:10111000A0F5006000B200EE100AB4EE001AF8EE7E
:10112000C00AB3EE070A00EE810A86ED000ABDE8A8
:10113000FC8100009C01002070B50D46144640F073
:10114000800000F017F806E0552000F013F805F8CD
:10115000010B641EE4B2002CF6D170BD10B50C4634
:1011600040F0800000F006F8552000F003F82070F1
:1011700010BD000001B582B04FF47A7000900123D9
:1011800001AA02A9024803F00DFC9DF804000EBD5F
:101190007C0B002002784078D20042EA5010B0F573
:1011A000806F02DBA0F5006000B200EE100AB4EE22
:1011B000001AF8EEC00AB3EE070A00EE810A81EDCC
:1011C000000A704710B50C46FFF7D4FF2046BDE873
:1011D0001040FFF7CFBFFEE7014801F0D2B8000092
:1011E000A0090020014801F0CCB80000C809002087
:1011F00008B50A494FF404720A6000228A60CA6086
:1012000008220A610649020A0A7048700A466B46BB
:101210000249044800F030FF08BD00000C16002011
:1012200099000020A009002038B50E4C4FF400753D
:1012300025600025A560E560082525610A4C050AA2
:1012400025706070080AA070E170100A2071627148
:10125000180AA071E3716B4622460249034800F068
:101260000BFF38BDDC15002089000020A0090020FC
:1012700038B50E4C40F2FF1525600025A560E560ED
:10128000082525610A4C050A25706070080AA070BF
:10129000E170100A20716271180AA071E3716B4647
:1012A00022460249034800F0E7FE38BDF41500204D
:1012B00091000020C809002070B5064630460CF0A9
:1012C00017F90024C4EB041006EBC00505F1180063
:1012D000D5ED040A95ED030A05F01EFCBDEEC00A2B
:1012E00010EE100AA88206EB840090EDB80AB5EE65
:1012F000C00AF1EE10FA01DCB1EE400AD6EDC10AE7
:10130000B4EEE00AF1EE10FA01D2C0EDB80A641CA6
:10131000042CD7DB3046BDE8704000F001B8000077
:101320002DE9F04304462DED108B85B09FEDC00AEA
:1013300084EDBC0A84EDC80AB4F9F206F3EE040A9F
:1013400000EE100A04F51370B8EEC00A05F0E4FBD5
:10135000B4F8F006D4ED9C0A00EE100AB8EE400A8C
:1013600030EE608A9FEDB30A28EE000A84EDC30ACE
:1013700010EE100AB049884203DD9FEDB00A84EDFB
:10138000C30A94EDC30ABDEEC00A10EE100A00B203
:10139000FFF72EFFAA48AB494068884211DDAA48F2
:1013A000B0F8F406B0F5FA5F06D0B2EE040A38EEF3
:1013B000000A84EDBC0A0AE09FEDA40A84EDBC0A91
:1013C00005E0B1EE040A38EE400A84EDBC0A0025BF
:1013D0009FED9F9B9FEDA0AB9FEDA1CA9FEDA1BB91
:1013E000C5EB051004EBC007B7F9146030460FF0E9
:1013F00043F941EC180B53EC192B0FF0B1F953ECF6
:10140000182B0FF0ADF941EC1D0B7868B0F90270A4
:1014100038460FF031F941EC180B53EC1A2B0FF052
:101420009FF953EC182B0FF09BF900EE106A41EC7A
:10143000180BB8EEC00A60EE0C0A00EE107AB8EE97
:10144000C00A20EE800A10EE100A0FF087FF53EC5E
:10145000182B0EF06BFD53EC1D2B0EF067FD53ECBB
:101460001B2B0EF063FD0EF0FFFB00EE100A04EBE9
:10147000850080EDC40AD4EDC80A30EE800A84ED00
:10148000C80A6D1CEDB2042DAAD394EDC80AD4EDA0
:10149000BC0AB4EEE00AF1EE10FA7CDDC0EE808A00
:1014A00000250DF104099FED71EB9FED72FB04EB3C
:1014B000850709EB850097EDC40A20EE280A80ED28
:1014C000000AB5EEC00AF1EE10FA63D3C5EB0510C1
:1014D00004EBC0067068B0F9028000EE908AF8EE66
:1014E000E00A20EE8C8A10EE100A0FF037FF41EC74
:1014F0001D0B40460FF0C0F841EC190B53EC1A2BB2
:101500000FF02EF953EC192B0FF02AF953EC1D2B89
:101510000FF022FC53EC1B2B0EF008FD0EF0A4FB89
:10152000B6F9141000293DDD0FF018FF53EC1E2B07
:101530000FF016F928EE080A41EC190B10EE100A0C
:101540000FF00CFF53EC192B0FF006FC41EC100BC5
:101550000AF0DAFAB0EE409AB1EE480AF0EE609A7C
:1015600010EE100A0FF0FAFE53EC192B0EF0DEFC11
:1015700053EC1F2B0EF01AFE0EF076FB00EE100A55
:1015800010EE100A87EDBD0A3C49884204DD4FF495
:101590007A50B08242E046E0BDEEC00A10EE100A7A
:1015A000B0823BE00FF0DAFE53EC1E2B0FF0D8F8C0
:1015B00028EE080A41EC190B10EE100A0FF0CEFECF
:1015C00053EC192B0FF0C8FB41EC100B0AF09CFAFE
:1015D000B0EE409AB1EE480AF0EE609A10EE100AB2
:1015E0000FF0BCFE53EC192B0FF0B6FB53EC1F2B86
:1015F0000EF0DCFD0EF038FB00EE100A10EE100AC3
:1016000087EDBD0A1E49884203D94CF28010B08292
:1016100004E0BDEEC00A10EE100AB0826D1CEDB2FF
:10162000042DFFF444AF05B0BDEC108BBDE8F08392
:10163000000000000000C84200204B4600204B463E
:10164000BC150020000070413C160020000034430F
:10165000335215713F82803EFCAFED507880833E5F
:101660004F020636000000A0F152104033521571AF
:101670003F82A03E335215713F82903E00007A4671
:1016800000007AC610B5124A506800011FD5114BF0
:10169000114C4FF00061586B0068A04203D90E480E
:1016A0004C3801600EE00A4CB834A04203D90A4815
:1016B0005038016006E0064C5834A04201D9D16090
:1016C00000E091601868016841F40071016010BD8C
:1016D00000600240440A002058640240014801F0C2
:1016E00079BA0000EC0F00202DE9F05FFA48FB4AC0
:1016F000FA4DC06CFA4EF94F0068DFF8E4C3DFF82A
:10170000DC83DFF8DC93DFF8D4A3DFF8D4B3DFF8B1
:10171000CCE3F34C483D60361837D1140CF1180C6B
:10172000A8F1300809F178090AF1300A0BF1300B01
:10173000AEF1180E90423ED9E84A543A1368A042DE
:1017400001D1202235E0A84201D1202231E0B0426F
:1017500001D120222DE0B84201D1202229E06045AC
:1017600001D10A4625E0404501D10A4621E048451D
:1017700001D10A461DE0504501D10A4619E05845FD
:1017800002D14FF4001214E0704502D14FF4001260
:101790000FE0D34A9032904202D14FF4001208E099
:1017A000CE4A4832904202D14FF4001201E04FF08D
:1017B00000621340C3E0CA4AA83290423ED9C74AE9
:1017C000583A1368A04201D1202235E0A84201D145
:1017D000202231E0B04201D120222DE0B84201D1D7
:1017E000202229E0604501D10A4625E0404501D18B
:1017F0000A4621E0484501D10A461DE0504501D185
:101800000A4619E0584502D14FF4001214E0704521
:1018100002D14FF400120FE0B14A9032904202D14F
:101820004FF4001208E0AD4A4832904202D14FF422
:10183000001201E04FF00062134080E0A84A4832F5
:1018400090423ED9A64A103A5368A04201D12022C4
:1018500035E0A84201D1202231E0B04201D120225E
:101860002DE0B84201D1202229E0604501D10A468D
:1018700025E0404501D10A4621E0484501D10A460C
:101880001DE0504501D10A4619E0584502D14FF4F8
:10189000001214E0704502D14FF400120FE0904A9C
:1018A0009032904202D14FF4001208E08B4A483245
:1018B000904202D14FF4001201E04FF00062134059
:1018C0003DE0874A103A1368A04201D1202235E05A
:1018D000A84201D1202231E0B04201D120222DE0E6
:1018E000B84201D1202229E0604501D10A4625E015
:1018F000404501D10A4621E0484501D10A461DE094
:10190000504501D10A4619E0584502D14FF4001262
:1019100014E0704502D14FF400120FE0704A90328B
:10192000904202D14FF4001208E06C4A48329042D3
:1019300002D14FF4001201E04FF000621340002B7F
:1019400072D0664A904235D9A04201D120212DE0C3
:10195000A84201D1202129E0B04201D1202125E077
:10196000B84201D1202121E060451FD040451DD063
:1019700048451BD0504519D0584502D14FF40011AD
:1019800014E0704502D14FF400110FE0544990313A
:10199000884202D14FF4001108E050494831884292
:1019A00002D14FF4001101E04FF000614B484C3878
:1019B0000160ADE04A4AA832904236D9A04201D136
:1019C00020212DE0A84201D1202129E0B04201D1FF
:1019D000202125E0B84201D1202121E060451FD01F
:1019E00040451DD048451BD0504519D0584502D11F
:1019F0004FF4001114E0704502D14FF400110FE0D4
:101A000037499031884202D14FF4001108E0334940
:101A10004831884202D14FF4001101E04FF00061DB
:101A20002E485038016073E0AEE02D4A48329042B3
:101A300035D9A04201D120212DE0A84201D1202199
:101A400029E0B04201D1202125E0B84201D1202176
:101A500021E060451FD040451DD048451BD0504572
:101A600019D0584502D14FF4001114E0704502D14D
:101A70004FF400110FE01A499031884202D14FF41F
:101A8000001108E015494831884202D14FF4001195
:101A900001E04FF0006112481038C16038E0A04208
:101AA00001D1202131E0A84201D120212DE0B04216
:101AB00001D1202129E0B84201D1202125E0604553
:101AC00023D0404521D048451FD050451DD0584512
:101AD00008D14FF4001118E07C0B0020586402403C
:101AE00010600240704502D14FF400110DE027490B
:101AF000884202D14FF4001107E02549884202D103
:101B00004FF4001101E04FF000612048A0388160DF
:101B1000204C207880070CD5207820F0020020701F
:101B2000207840F004002070012211461A4801F08C
:101B3000D3FA6078194D80070CD5607820F0020048
:101B40006070607840F00400607001221021284627
:101B500001F0C2FAA07880070CD5A07820F002002E
:101B6000A070A07840F00400A07001221021284647
:101B700001F0B2FA0BF042FF2078400704D5084884
:101B8000016841F001010160BDE8F09FA0600240E2
:101B9000A0640240F800002000040240000002405F
:101BA000103C0140014801F015B800002C0F002046
:101BB000014801F00FB800004C1000200168CAB2C3
:101BC000103A1823B2FBF3F2064B9B5CC3656FF32C
:101BD0000901032A02D9091D816500E08165806D34
:101BE00070470000EE18010810B5014600208A6A0F
:101BF0008B694FF0C074002B0ED0B3F5005F1AD084
:101C000062B3012A2AD0022A28D0032A03D1C96A42
:101C1000C90100D5012010BD1AB1012A06D0022A3F
:101C2000F9D1C96AC901F6D5012010BDC96AA1421E
:101C3000FBD1012010BD52B1012A0AD0022A06D0E0
:101C4000032AF7D1C96AA142F4D1012010BD0120B5
:101C500010BDC96AC901FBD5012010BD012010BD0E
:101C60007047012001F04AB9082001F047B910205F
:101C700001F044B9202001F041B9704778B5002443
:101C8000009490F83C20012A19D0012280F83C20D1
:101C90000A680725092A14D90368DE680A3A02EBA4
:101CA00042029540AE43DE600A788B680A3A02EB46
:101CB000420293400268D5682B43D36011E00220B2
:101CC00078BD03681E6902EB42029540AE431E6177
:101CD0000A788B6802EB42029340026815692B4335
:101CE00013614A681F25072A13D203685E6B521ED0
:101CF00002EB82029540AE435E630A8893B20A7992
:101D0000521E02EB820293400268556B2B435363D1
:101D100028E00D2A13D203681E6BD21F02EB820249
:101D20009540AE431E630A8893B20A79D21F02EB34
:101D3000820293400268156B2B43136312E0036821
:101D4000DE6A0D3A02EB82029540AE43DE620A88FB
:101D500093B20A790D3A02EB820293400268D56A87
:101D60002B43D362174A184B05689D4206D10D6874
:101D7000122D03D1556845F48005556005689D42D4
:101D80001BD10B68102B01D0112B16D1536843F4D3
:101D900000035360096810290FD10C490C4A0968E7
:101DA000B1FBF2F101EB81014900009102E00099E1
:101DB000491E009100990029F9D180F83C4000208B
:101DC00078BD0000002301400020014024000020D5
:101DD00040420F000068C06C704770B50446002692
:101DE000002C03D0206C002510B107E0012070BD4D
:101DF000204600F01DF8656484F83C50206CC00655
:101E000010D4206C20F4885040F00200206420465A
:101E1000FEF77AFD6564206C20F0020040F00100BE
:101E2000206400E0012684F83C50304670BD00007C
:101E300010B586B00446142101A8FEF720FC174B0C
:101E4000206800221649984209D1086840F4807041
:101E50000860086800F48070009006B010BD114B57
:101E60009842FAD1086840F480600860086800F47D
:101E7000806000900A481438016841F02001016038
:101E8000006800F0200000901815019003200290D7
:101E9000039201A9044801F03DF8DEE7002001406B
:101EA0004438024000220140001402402DE9F04174
:101EB00004460D46206881684FF0000749050BD5A0
:101EC0008068C00508D5206C40F02000206484F8AC
:101ED0003C700120BDE8F08101F006F906460FE0F4
:101EE000681C0DD025B101F0FFF8801BA84207D96E
:101EF000206C40F00400206484F83C700320E9E783
:101F0000206800688007EBD521686FF01200086038
:101F1000206C40F4007020642068816811F0405FFC
:101F200013D1217E89B9C16A11F4700F02D0806883
:101F300040050AD4206C20F480702064206CC0041A
:101F400003D4206C40F0010020640020C2E70000B0
:101F500018B50022009290F83C10012907D0012109
:101F600080F83C1001688B68DB0702D014E0022087
:101F700018BD8B6843F001038B603049304B096812
:101F8000B1FBF3F101EB4101009102E00099491E20
:101F9000009100990029F9D101688B68DB074AD0CC
:101FA000036C40F20164A34343F4807303644B6801
:101FB0005B0505D5036C23F4005343F4805303649D
:101FC000036CDB0404D5436C23F00603436400E098
:101FD000426480F83C201B4A6FF022030B6051687A
:101FE000CA06194907D00068884224D1816811F0D7
:101FF000405F1CD01FE0006888420FD0134A904217
:1020000003D1D1F80423D20608D0114A904212D14C
:10201000D1F8041301F01F0110290CD2816811F0CE
:10202000405F08D1816841F08041816003E08168B0
:1020300041F080418160002018BD00002400002094
:1020400040420F00002301400020014000210140D8
:102050000022014090F82020012A07D0022A05D052
:10206000416A41F480214162012070470068426961
:102070000A43426100207047F0B590F82050046890
:10208000A468012D07D0022D05D0416A41F48021BA
:1020900041620120F0BD04F0806504F00066354324
:1020A00001D1E5005BD5C4F30164022C05D9416A76
:1020B00041F4000141620120F0BD0125A5401D60F1
:1020C0008B684FF4C0759BB1CE6805EB04173343A2
:1020D0004E6843EAC6030668F3514FF4C2730768BB
:1020E00003EB04130E69FE50097D012909D00DE0B0
:1020F0000E88CB6805EB041743EA46530668F35194
:10210000EBE70168CE5846F48076CE501179D3794A
:10211000567941EA036193791B0443EA0623194384
:102120004FF4C676036806EB041699511178D378FC
:1021300041EA0361937852781B0443EA0222114377
:102140004FF4C473026803EB0413D150006805EB2D
:102150000411425842F0010242500020F0BD416A91
:1021600041F4001141620120F0BD000010B590F86B
:102170002020012A07D0022A05D0416A41F480219B
:102180004162012010BD3C4800F50070026842F039
:1021900001020260026822F47C52026002684B6A0B
:1021A00042EA032202600A7D02F01F0301229A40E4
:1021B000C3699343C361A0F50070CB69B3B9D0F88C
:1021C0000C329343C0F80C328C894B6864F31F4384
:1021D0004C6900EBC404C4F840320C890B6864F30A
:1021E0001F434C6900EBC404C4F84432CB69012B93
:1021F00016D1D0F80C321343C0F80C320C884B685F
:1022000064F31F434C6900EBC404C4F840320C89EA
:10221000CB6864F31F434C6900EBC404C4F8443238
:102220008B697BB1D0F804321343C0F804320B69D8
:1022300073B1D0F814321343C0F81432096A01297B
:102240000CD010E0D0F804329343C0F80432EEE72B
:10225000D0F814329343C0F81432EFE7D0F81C12D0
:102260001143C0F81C12D0F8001221F00101C0F88F
:102270000012002010BD000000640040704730B51F
:1022800090F82040012C07D0022C05D0416A41F47F
:1022900080214162012030BD21B104682469A40776
:1022A0005ED003E00468E468A40753D04FF4D87408
:1022B000056804EB01142D5905F004059560002D07
:1022C00054D005682D59ED08556005682C59C4F3A4
:1022D0004004D4604FF4DA74056804EB01142D59FE
:1022E00005F00F05156105682D59C5F307259561A2
:1022F00005682C59240C54614FF4DC72046802EB1D
:102300000112A4581C700468A458240A5C70046864
:10231000A458240C9C700468A258120EDA704FF472
:10232000DE72046802EB0112A4581C710468A45800
:10233000240A5C710468A458240C9C710468A25897
:10234000120EDA71B9B10068016941F02001016132
:10235000002030BD416A41F400114162012030BDCE
:10236000416A41F400114162012030BD05682D59D8
:102370006D0D1560A9E70068C16841F02001C160DA
:10238000E6E72DE9F05F0546002428684669D0F8A5
:1023900004908768D0F80CA0D0F810B0D0F818805E
:1023A000F10748D0F90714D001218160B80703D59F
:1023B000284600F0E1FB0CE0780702D54FF40064FA
:1023C00007E0380702D54FF4805402E0284600F0B9
:1023D000D2FBF80516D529684FF480708860B805DF
:1023E00003D5284600F0CAFB0CE0780502D544F47A
:1023F000005407E0380502D544F4804402E0284642
:1024000000F0BBFBF80316D529684FF480308860D4
:10241000B80303D5284600F0B3FB0CE0780302D5DF
:1024200044F4004407E0380302D544F4803402E069
:10243000284600F0A4FB300707D55FEACA6004D540
:1024400044F4007429681020C86070074FF0080732
:1024500007D55FEA0A7004D52868C760284600F0EF
:10246000B7F9B00706D52868C068800702D02846AB
:1024700000F0B0F9700607D55FEACB6004D544F4EC
:102480008064296810200861B00607D55FEA0B70E8
:1024900004D528680761284600F03EFBF00606D503
:1024A00028680069800702D0284600F036FBB00398
:1024B00008D55FEAC96005D529681020486028461C
:1024C00000F02CFBF00307D55FEA097004D52868FB
:1024D0004760284600F055FB300446D55FEA497056
:1024E00040D5F00504D55FEAC87001D044F001047E
:1024F000B00504D55FEA887001D544F00204700588
:1025000004D55FEA487001D544F00404300529D5AC
:1025100018F0700F26D008F07000402815D006DCA7
:10252000102809D020280AD0302816D10AE05028D7
:102530000ED0602811D10EE044F008040DE044F004
:1025400010040AE044F0200407E044F0400404E0F2
:1025500044F0800401E044F480742868816921F02B
:1025600070018161296804204860002C05D0686AE8
:10257000204368622846FFF781FEBDE8F09F70B5F2
:102580000446002C03D094F8200010B104E0012090
:1025900070BD204600F09CF82068016821F002011F
:1025A000016000F0A1FD054605260CE000F09CFD51
:1025B000401B0A2807D9606A40F40030606284F842
:1025C0002060012070BD206840688007EED420683C
:1025D000016841F00101016000F086FD05460CE054
:1025E00000F082FD401B0A2807D9606A40F40030E1
:1025F000606284F82060012070BD20684068C007D8
:10260000EED0207E01283FD02068016821F08001B3
:102610000160607E01283DD02068016821F0400102
:102620000160A07E01283BD02068016821F02001D4
:102630000160E07E012839D02068016841F0100176
:102640000160207F012837D02068016821F008014F
:102650000160607F012835D02068016821F0040105
:102660000160D4E902010843D4E90412114308438C
:102670006168491E08432168C8610020606201202A
:1026800084F82000002070BD2068016841F08001BE
:102690000160BEE72068016841F040010160C0E7C9
:1026A0002068016841F020010160C2E720680168EC
:1026B00021F010010160C4E72068016841F00801C1
:1026C0000160C6E72068016841F004010160C8E7C5
:1026D0002DE9F04186B00446142101A8FDF7CFFF93
:1026E000364B374ADFF8D08018682168344C03260F
:1026F0000227401C103200254FF0090C414527D11C
:102700001860012807D1106840F000701060106850
:1027100000F000700090206840F008002060206801
:1027200000F0080000900196029703950496CDF8FA
:1027300014C001A9234800F0EDFB0022062114205B
:1027400001F0B2F8142001F0A1F806B0BDE8F08164
:10275000DFF874804145F8D1116841F08061116063
:10276000116801F0806100911860012807D110689C
:1027700040F000701060106800F000700090206859
:1027800040F002002060206800F00200009060200D
:102790000190029703950496CDF814C001A90B4847
:1027A00000F0B8FB00220621402001F07DF8402017
:1027B00001F06CF8C9E7000000640040140000203C
:1027C00030380240000C0240006800400004024023
:1027D0007047000030B589B00446C74884424BD1E9
:1027E0006B4602AA00212046FFF749FD029940F2FC
:1027F00011230846A1F211229FEDC01A99427CD004
:102800000ADCA1F50071013911D001290FD002298C
:102810000DD0032930D10AE0012A6FD0B848002337
:1028200000F58061072A28D0082A25D152E0B54951
:10283000401EC0B2087000EB8002B34800EB4201BA
:1028400030F812300B819DF801309DF8005043EABA
:10285000052320F812309DF803009DF8022040EA7D
:10286000022048809DF805009DF8042040EA0220DF
:1028700088809DF806008871B4E09DF801209DF8DD
:10288000005042EA0522A0F898239DF803209DF805
:10289000025042EA052212B200EE102AB8EEC00A37
:1028A00081EDB70A9DF805209DF8045042EA052203
:1028B00012B200EE102AB8EEC00A81EDB80A9DF8F7
:1028C00007109DF8062041EA0221A0F8E8168F487B
:1028D000036087E09DF801209DF8005042EA052240
:1028E00000EE102AB8EE400AC0EE010AC1EDBB0AA4
:1028F0009DF803109DF8022001E016E050E000F57D
:10290000DE6041EA022141809DF805109DF8042017
:1029100041EA022181809DF807109DF8062041EAD6
:10292000022101807A4803605CE09DF800009DF878
:10293000011040EA012000EE100A7348B8EE400A88
:102940005030C0EE010AC0ED000A9DF802109DF85B
:10295000032041EA022100EE101AB8EE400AC0EE50
:10296000010AC0ED010A9DF804109DF8052041EA16
:10297000022100EE101AB8EE400AC0EE010AC0EDC6
:10298000020A9DF806109DF8072041EA022100EE98
:10299000101AB8EE400AC0EE010AC0ED030A21E0A9
:1029A0009DF800009DF8011040EA012000EE100A99
:1029B0005548F8EE400A603080EE810A80ED000A4A
:1029C0009DF802109DF8032041EA022100EE901AC2
:1029D000F8EE601AC1EE810AC0ED020A20EE200A6C
:1029E00080ED030A4B4884422CD16B4602AA002199
:1029F0002046FFF744FC0298A0F50070053823D06C
:102A000001283ED0022859D003281BD13E483C3033
:102A1000018801819DF801109DF8002041EA022102
:102A200001809DF803109DF8022041EA02214180B7
:102A30009DF805109DF8042041EA022181809DF84F
:102A40000610817109B030BD2F48283001880181FE
:102A50009DF801109DF8002041EA022101809DF8B7
:102A600003109DF8022041EA022141809DF80510E3
:102A70009DF8042041EA022181809DF806108171B1
:102A8000E0E721483230018801819DF801109DF86E
:102A9000002041EA022101809DF803109DF80220E8
:102AA00041EA022141809DF805109DF8042041EA89
:102AB000022181809DF806108171C3E712484630DB
:102AC000018801819DF801109DF8002041EA022152
:102AD00001809DF803109DF8022041EA0221418007
:102AE0009DF805109DF8042041EA022181809DF89F
:102AF00006108171A6E70000A00900200000C8426E
:102B00003C160020880000206C150020BC0000202E
:102B1000B8000020C809002070477047704770B5A2
:102B2000044694F82000012805D0606A40F4002093
:102B30006062012070BD022084F8200020680168D6
:102B400021F00101016000F0CFFA05460DE000F030
:102B5000CBFA401B0A2808D9606A40F40030606252
:102B6000052084F82000012070BD20684068C0075F
:102B7000EDD1606270BD7047704770477047704715
:102B80007047704710B50446002C02D0607910B130
:102B900006E0012010BD00202071204600F006F85C
:102BA0000220607101206071002010BD08B500682E
:102BB0000649884208D10648016841F48051016005
:102BC000006800F48050009008BD00000030024012
:102BD000303802402DE9F84304464FF00009CDF8A3
:102BE00000906F484FF416510068B0FBF1F7A56DE7
:102BF0002E6894F85C00082202FA00F1314210D0ED
:102C00002068016849070CD5016821F004010160C2
:102C100094F85C0002FA00F1A960606D40F00100D8
:102C2000606594F85C104FF0010808FA01F030423A
:102C300008D021684969090604D5A860606D40F094
:102C40000200606594F85C1004208840304208D08F
:102C500021680968890704D5A860606D40F0040008
:102C6000606594F85C1010208840304220D02168C4
:102C7000096809071CD5A8602068016849030CD5BC
:102C80000068000304D4216C91B1204688470FE00E
:102C9000A16C69B1204688470AE00168C90503D4E0
:102CA000016821F008010160216C09B120468847C4
:102CB00094F85C102020884030424CD0216809688C
:102CC000C90648D5A86094F8350005280BD02068BF
:102CD0000168490330D50068000328D4616C51B302
:102CE0002046884737E02068016821F0160101601E
:102CF0002068416921F080014161206C08B9A06C15
:102D000020B12068016821F00801016094F85C108E
:102D10003F208840A86084F8349084F83580216D85
:102D200000293BD001B02046BDE8F0430847E16BE5
:102D300009B1204688470EE00168C90507D401683B
:102D400021F01001016084F8349084F83580E16B43
:102D500009B120468847606D00281FD0606DC0070C
:102D600014D0052084F835002068016821F00101A5
:102D700001600098401C0090B84203D820680068A9
:102D8000C007F6D184F8349084F83580E16C0029CE
:102D900004D001B02046BDE8F0430847BDE8F88301
:102DA000240000202DE9F041044600F09DF905467D
:102DB0005CB1002684F83460022084F83500206875
:102DC000016821F0010101600DE00120BDE8F08102
:102DD00000F08AF9401B052805D9202060650320F2
:102DE00084F83500F2E720680068C007F0D1216858
:102DF0000A6820480240D4E901031843D4E90335A6
:102E00002B43184363691843A3691843E3691843C4
:102E1000236A18431043626A042A03D1D4E90B23BE
:102E20001A43104308602068406920F00700656A73
:102E300029460543012704290DD1A06A0543E06A0C
:102E400048B12046FEF7D0FE28B14020606584F8E6
:102E500035700120BAE7206845612046FEF7AEFED6
:102E600094F85C203F2191408160666584F835705C
:102E70000020ABE73F8010F010B51E4C10281AD090
:102E8000202827D0082830D0012813D10CF00CFDC1
:102E900001280FD004F10C0120690CF047F8E0681C
:102EA000002807D014494FF080500860BFF34F8FBF
:102EB000BFF36F8F10BD607840F001006070A078A4
:102EC00040F00100A07020790028F3D0BDE8104048
:102ED0000AF094BD207840F001002070207900288D
:102EE000E8D0BDE810400AF089BDE07840F001006C
:102EF000E07010BDF800002004ED00E010B50449BA
:102F00000A68024202D00860FFF7B6FF10BD000059
:102F1000143C01402DE9F84F0022DFF89091DFF8D2
:102F20008C8109F108094FF0010E4FF00F0C09F1E7
:102F3000040A0EFA02F60B683340B34271D14C68B2
:102F4000022C01D0122C11D1D40800EB84073D6A69
:102F50005407E40E0CFA04FB25EA0B05D1F810B077
:102F60000BFA04FB4BEA050BC7F820B007685400C6
:102F70000325A540AF4391F804B00BF0030B0BFA07
:102F800004FB4BEA070BC0F800B04F68012F05D0D7
:102F9000022F03D0112F01D0122F11D18768AF4318
:102FA000D1F80CB00BFA04FB4BEA070BC0F808B0E1
:102FB0004768B7430E79C6F3001696403E43466015
:102FC000C668AE438D68A5403543C5604C68E400D3
:102FD00065D5374C256845F480452560246804F4A0
:102FE00080440094334C22F003052544D5F808783A
:102FF0009407260F0CFA06F4A7432F4CA04201D1E8
:10300000002424E02D4CA04201D101241FE02C4CCF
:10301000A04201D102241AE02A4CA04202D103248A
:1030200015E03CE0284CA04201D104240FE0274CDD
:10303000A04201D105240AE0254CA04201D106247A
:1030400005E0244CA04201D1072400E00824B4404C
:103050003C43C5F80848D8F800409C434D68ED0350
:1030600000D51C43C8F80040104D2D1D2C689C4312
:103070004E68B60300D51C432C60D9F800409C4331
:103080004D68ED0200D51C43C9F80040DAF8004055
:103090009C434D68AD0200D51C43CAF80040521C49
:1030A000102AFFF446AFBDE8F88F0000003C014055
:1030B0004438024000300140000002400004024059
:1030C00000080240000C02400010024000140240C0
:1030D00000180240001C0240002A01D081617047A4
:1030E0000904816170470000014880687047000052
:1030F000D401002070B50446002C04D094F83D00A3
:10310000002510B106E0012070BD84F83C50204637
:1031100000F09AFA242084F83D002068016821F02C
:103120000101016001F080F84F4B6168994203D8BA
:103130004E49884203D304E04D49884201D2012020
:1031400070BD4C49B0FBF1F12268566826F03F068D
:103150000E43566062689A4201D8491C07E04FF45A
:10316000967251434FF47A72B1FBF2F1491C226816
:10317000166A26F03F06314311626168994210D801
:103180004900401EB0FBF1F2521CC2F30B02042AAC
:1031900001D2042022E0B0FBF1F0401CC0F30B0090
:1031A0001CE0A268F2B301EBC10303EB0116431E5E
:1031B000B3FBF6F35B1C43F480431B0549D092B389
:1031C00001EBC10202EB0111401EB0FBF1F0401C0B
:1031D000C0F30B0040F4804040F400402168CA690D
:1031E0004CF6FF739A431043C861D4E907100143BA
:1031F0002068026822F0C00211430160D4E9030193
:1032000001432068826848F2FF339A43114381608A
:10321000D4E9051001432068C26822F0FF0211437F
:10322000C16001E00EE016E02068016841F0010194
:1032300001602564202084F83D00256384F83E5019
:10324000002070BD01EB4106431EB3FBF6F35B1C8F
:10325000B3E70120C2E701EB4101401EB0FBF1F0F2
:10326000401CC0F30B00B7E7A086010080841E005D
:1032700000093D0040420F002DE9FF4F83B0044696
:10328000DDE911988A469346109FFFF72DFF05460A
:1032900094F83D00202803D0022007B0BDE8F08F4D
:1032A0001923012294492046009502F0E8FA08B15A
:1032B0000220F2E794F83C00012807D0012084F8AE
:1032C0003C0020680168C90702D005E00220E4E75D
:1032D000016841F0010101602068016821F400618A
:1032E0000160222084F83D00402084F83E00002642
:1032F00026646762A4F82A90608D20857F48E0628A
:10330000CDE900855A4651462046069B02F0A2F9B7
:1033100008B10120C1E7208D48B1012810D0022852
:103320001CD02068416980690290754FD8E0206800
:10333000416981690291016841F400710160F4E71B
:103340002068016821F48061016020684169816919
:103350000291016841F400710160E6E720680168AC
:1033600021F4806101602068016841F4006101601E
:103370002068416980690290D7E703287ED8012838
:103380000BD002281FD04346002239462046009524
:1033900002F075FAF0B301207FE72A464146204645
:1033A00002F0FEFA08B1012077E720680069616A3F
:1033B0000870606A401C6062208D401E2085608D10
:1033C000401E60858CE04346002239462046009529
:1033D00002F055FA08B101205FE72068016841F466
:1033E0000071016020680069616A0870606A401CB1
:1033F0006062218D491E2185618D491E618521688C
:1034000009690170606A401C6062208D401E208541
:10341000608D00E002E0401E608561E02068016888
:1034200021F48061016020680069616A0870606A47
:10343000401C6062208D401E2085608D401E60858E
:103440004346002239462046009502F018FA08B19A
:10345000012022E72068016841F4007101602068C2
:103460000069616A0870606A401C6062218D491EB3
:103470002185618D491E6185216800E00BE00969A5
:103480000170606A401C6062208D401E2085608D46
:10349000401E608524E02A464146204602F080FA1C
:1034A00008B10120F9E620680069616A0870606A65
:1034B000401C6062218D491E2185618D491E6185F8
:1034C00021684A69D24352070AD409690170606AC7
:1034D000401C6062208D401E2085608D401E6085EE
:1034E000208D00287FF449AF20203C346070A67006
:1034F00026700020D1E60000020010000000FFFF4F
:10350000040001002DE9FF4F83B00446DDE9119866
:103510008A469346109DFFF7E7FD064694F83D0066
:10352000202803D0022007B0BDE8F08F1923012224
:1035300043492046009602F0A2F908B10220F2E7C2
:1035400094F83C00012807D0012084F83C00206852
:103550000168C90702D005E00220E4E7016841F0F4
:10356000010101602068016821F4006101602120EF
:1035700084F83D00402084F83E00002727646562FF
:10358000A4F82A90608D20852E48E062CDE900865F
:103590005A4651462046069B02F0EEF880B30120C1
:1035A000C1E732464146204602F030FA48B1206C6D
:1035B000042804D12068016841F4007101600120F1
:1035C000B1E7606A216800780861656A6D1C656210
:1035D000208D401E80B22085618D491E6185236843
:1035E0005969C94349070BD450B128781861606AFA
:1035F000401C6062208D401E2085608D401E6085CD
:10360000208D0028CDD132464146204602F010F9E7
:1036100048B1206C042804D12068016841F400718D
:10362000016001207FE71F3454F81F0C016841F44A
:10363000007101602020A077E7776777002072E7AC
:10364000020010000000FFFF2DE9F04786B006469B
:10365000142101A8FDF713F8534C524A3068002595
:103660005149032710344FF012084FF001094FF071
:10367000040A90421FD1086840F002000860086800
:1036800000F00200009038020190CDF80880CDF8DB
:103690000C900497CDF814A001A94448FFF73AFC18
:1036A000206840F400102060206800F400100090B2
:1036B00006B0BDE8F0873E4A90423CD1086840F031
:1036C00020000860086800F0200000900197CDF805
:1036D0000880CDF80C900497CDF814A001A93548C6
:1036E000FFF718FC206840F480002060206800F498
:1036F00080000090314C304820604FF06060606086
:103700004020A060E560000120616561A561E56180
:10371000C001206265622046FFF744FB08B1FEF756
:10372000ACFA7463A6632548A8380068416841F480
:1037300000614160BCE7224A9042B9D1086840F07C
:1037400004000860086800F004000090086840F079
:1037500001000860086800F0010000905015019019
:10376000CDF80880CDF80C900497CDF814A001A9ED
:103770001448FFF7CFFB4FF480700190CDF808801C
:10378000CDF80C900497CDF814A001A90E48FFF7CE
:10379000C1FB206840F400002060206800F40000B5
:1037A000009085E700540040303802400004024099
:1037B0000058004000140240B8600240EC0A0020AB
:1037C000005C00400008024000000240024881689E
:1037D0000278114481607047D401002010B50B4875
:1037E000016841F400710160016841F48061016089
:1037F000016841F480710160032000F075F80F202A
:1038000000F006F800F026F8002010BD003C024051
:1038100070B504460D4D4FF47A712878B1FBF0F085
:103820000B490968B1FBF0F001F0AEF908B10120D5
:1038300070BD102C07D200222146501E00F034F833
:103840006C60002070BD012070BD0000D40100201C
:103850002400002082B00C48016841F480410160DE
:10386000006800F4804001900748001F016841F0A3
:1038700080510160006800F08050019000220F210B
:10388000901E02B000F010B844380240002809DB56
:1038900000F01F02012191404009800000F1E0206A
:1038A000C0F8001170470000F0B40D460D4B1B68C6
:1038B000C3F30223C3F10704042C00D90424191D07
:1038C000072901D2002300E0DB1E012606FA04F1DD
:1038D000491E294099409E40761E16403143F0BC57
:1038E00006F077BE0CED00E000F00701054A106815
:1038F0004FF6FF03184040EA0120034908431060D7
:10390000704700000CED00E00000FA057047D0F8A9
:10391000040405F0F7BFC1EBC10200EB8202D0F84E
:103920000404926C05F040BFC1EBC10200EB8202BF
:10393000D0F80404D2F8082205F0A1BFD0F804049E
:1039400005F0E2BF70B5044601F00F0062689042D6
:1039500001D9012070BD0B0601F00F01C1EBC101BF
:1039600004EB81014FF001024FF0000502D53C311C
:103970004A7002E001F5FE714D708D70087094F888
:10398000BC03012808D084F8BC23206806F0A6FBFD
:1039900084F8BC53002070BD022070BD2DE9F041B9
:1039A00004460F0601F00F00C0EBC00104EB8101DB
:1039B0004FF001064FF0000502D53C314E7002E099
:1039C00001F5FE714D7008708A60CB704A7802B1C3
:1039D000C880022B00D10D7194F8BC03012809D0D6
:1039E00084F8BC63206806F069FA284684F8BC5362
:1039F000BDE8F0810220FBE770B50D4605F00F042D
:103A0000C4EBC40100EB810101F5FE71CA604B619A
:103A100000238B614B700C700369012B00D10A618C
:103A20002A0705D0027C006806F0B0FB002070BDBC
:103A3000027C006806F09EFAF8E770B504460D4671
:103A4000616805F00F00884201D9012070BD290688
:103A50004FF000064FF0010206D5C0EBC00104EBA9
:103A600081013C314A7006E0C5EBC50104EB8101E0
:103A700001F5FE714E708A70087094F8BC0301283D
:103A800007D084F8BC23206806F054FB280702D036
:103A900007E0022070BD217C04F57172206806F0F9
:103AA000F3FA84F8BC63002070BD70B50D4605F0D4
:103AB0000F04C4EBC40100EB81013C31CA604B61CF
:103AC00000238B6101234B700C700369012B00D123
:103AD0000A612A0705D0027C006806F057FB002027
:103AE00070BD027C006806F045FAF8E72DE9F84F52
:103AF00004462568284606F065FC00287ED120682B
:103B000006F08CFC002879D0206806F087FC80073E
:103B100004D52068416901F002014161206806F086
:103B20007DFC010304F571704FF001084FF00809A6
:103B30004FF0100B009044D50026206806F04DFC95
:103B400082463BE05FEACA7035D0F1B2206806F0E9
:103B50005DFC0746F80707D005EB4610C0F8088B58
:103B60003146204602F016FF380707D53146204679
:103B700002F0DEFE05EB4610C0F8089BF80603D500
:103B800005EB4610C0F808BBB8060CD52069012823
:103B900004D120680121009A06F076FA05EB461060
:103BA0002021C0F8081BB80405D505EB46104FF4DA
:103BB0000051C0F8081B761C4FEA5A0ABAF1000FF0
:103BC000C0D1206806F02AFC40035ED5206806F0CC
:103BD000FDFB8246002655E05FEACA704FD0F1B285
:103BE000206806F001FC0746F80728D006F00F0110
:103BF00008FA01F0D5F83418814300E06BE1C5F80C
:103C0000341805EB4610C0F808892069012807D14F
:103C1000C6EBC60004EB8000D0E911211144816499
:103C2000F1B22046FFF777FE2069012807D136B9A7
:103C3000206D20B920680121009A06F025FA380786
:103C400003D505EB4610C0F80899F80603D505EB37
:103C50004610C0F808B9780604D505EB4610402197
:103C6000C0F80819B80704D505EB46100221C0F8C2
:103C70000819380603D53146204602F0FFFE761CAF
:103C80004FEA5A0ABAF1000FA6D1206806F0C6FB27
:103C9000002811DAD5F8040820F00101C5F804184D
:103CA00094F8F40301282BD0204600F035F9206861
:103CB000416901F000414161206806F0AFFB000559
:103CC0000BD5D5F80808C00702D0204600F048F907
:103CD0002068416901F400614161206806F09EFBA3
:103CE000C0045CD5D5F8040820F00101C5F804181B
:103CF0001021206806F044FB00214FF67F3219E0C6
:103D0000002084F8F40300212046FFF7FFFDCEE7F2
:103D100005EB411000F510608260036823F4001386
:103D20000360C0F80822D0F8003223F40013C0F872
:103D30000032491C60688842EAD8D5F81C0840F077
:103D40000111C5F81C18206B60B1D5F8840840F04B
:103D50000B01C5F88418D5F8440840F00B01C5F8EC
:103D600044180CE0D5F8140842F22B010843C5F8BA
:103D70001408D5F8100840F00B01C5F81018D5F854
:103D8000000820F4FE61C5F80018217C2068009A24
:103D900006F07AF92068416901F480514161206898
:103DA00006F03CFB800415D5206806F0C9F82068B1
:103DB00006F0F8FAE06000F031FA0146227B206854
:103DC00006F04EFB204600F090F82068416901F4AF
:103DD00000514161206806F021FBC00635D52068FE
:103DE000816921F0100181612F6A07F00F00C0EB9B
:103DF000C00004EB800606F5FE76C7F343400228B8
:103E000002D0062812D01BE047F6F070074217D008
:103E1000C7F30A1217462846F16806F003FBF0685C
:103E20003844F060B0693844B06109E0082228469F
:103E3000009906F0F7FAB069C7F30A110844B061B7
:103E40002068816941F010018161206806F0E6FA7E
:103E5000000707D5204600F063F82068416901F0AB
:103E600008014161206806F0D9FAC00208D5002196
:103E7000204600F032F82068416901F48011416168
:103E8000206806F0CBFA800208D50021204600F019
:103E900028F82068416901F400114161206806F0AA
:103EA000BDFA400007D52046FFF731FD2068416983
:103EB00001F080414161206806F0B0FA40070AD560
:103EC00020684568680702D52046FFF737FD20685F
:103ED000416829434160BDE8F88FD0F8040405F03B
:103EE0002EBDD0F8040405F02CBD70B504460125A4
:103EF000E06800280ED0022801D0FDF7BEFE29465A
:103F0000D4F8040405F06FFDD4F80404BDE8704053
:103F100005F02EBD0025F2E7D0F8040405F051BDF0
:103F2000D0F8040405F053BD10B5044694F8BC0362
:103F300001280BD0012084F8BC0384F838102068D5
:103F400006F07FFA002084F8BC0310BD022010BDEB
:103F5000D0F8042400F57171104605F050BD000042
:103F600010B50446D4F8040405F07FFD2068D0F8AD
:103F7000001E41F00101C0F8001E206A002804D094
:103F80000248016841F00601016010BD10ED00E03B
:103F90002DE9F84304464FF0010820684FF0000770
:103FA000C10701D140072BD5DFF81891C9F8687017
:103FB000FFF79AF80646444D07E0FFF795F8801B97
:103FC000022802D90320BDE8F88328680001F4D450
:103FD0006068217A800140EA01703B4984310860C1
:103FE000C9F86880FFF780F8064606E0FFF77CF81E
:103FF000801B022801D90320E5E728680001F5D5D8
:104000002078800753D530484030016841F0805116
:104010000160006800F0805000902C4D286840F44A
:1040200080702860FFF760F8064606E0FFF75CF84E
:10403000801B022801D90320C5E72868C005F5D5F3
:10404000214D7035286800F44070F8B1A18901F461
:10405000407181421AD0286820F440701C49C1F890
:1040600000800F6028602868C0070FD0FFF73CF879
:10407000064641F2883706E0FFF736F8801BB84263
:1040800001D903209FE728688007F5D5E0680E492D
:10409000C0F301220831032A0BD0086820F4F8107D
:1040A00008602868A189C1F30B010843286000203B
:1040B00089E70A68074B22F4F812184002430A60A5
:1040C000EFE7000000004742003802400070004067
:1040D000400E4742FFFCFF0F2DE9F04704460D4616
:1040E000002C13D0DFF82491D9F80000EFB200F0D3
:1040F0000F00A8420CD289F80070D9F8000000F037
:104100000F00A84204D00120BDE8F0870120FBE7A2
:1041100020683F4E810712D5400703D5306840F430
:10412000E05030602078000703D5306840F46040EC
:1041300030603068A16820F0F000084330602078DB
:10414000C00731D0324960680839012808D00228F8
:104150000BD0032809D0096889070BD40120D3E7C5
:104160000968890306D40120CEE70968890101D4D2
:104170000120C9E7316821F0030101433160FEF7F6
:10418000B3FF804641F2883A07E0FEF7ADFFA0EBAF
:104190000800504501D90320B6E73068616800F097
:1041A0000C00B0EB810FF0D1D9F8000000F00F0047
:1041B000A84209D989F80070D9F8000000F00F0072
:1041C000A84201D001209FE72078400705D530683C
:1041D000E16820F4E050084330602078000706D5FD
:1041E0003068216920F4604040EAC100306000F08E
:1041F0003BF83168074AC1F30311515CC8400649D6
:1042000008600F20FFF704FB00207DE7003C024020
:10421000083802409818010824000020014800686E
:10422000704700002400002000B5FFF7F7FF0449A5
:104230000968044AC1F38221515CC84000BD0000F6
:1042400008380240A818010800B5FFF7E7FF044945
:104250000968044AC1F34231515CC84000BD000006
:1042600008380240A818010810B51748006810F077
:104270000C01164816D0164B042912D0082911D16A
:10428000114C241F216801F03F02216849020AD520
:104290002068C0F38810A0FB03010023FCF7DAF8C4
:1042A00009E0184610BD21680023C1F38811A1FB65
:1042B0000001FCF7CFF82168C1F30141491C490016
:1042C000B0FBF1F010BD0000083802400024F400FB
:1042D000001BB7002DE9F84F0446002C10D02078C1
:1042E000DC4DC00757D0DB4808300168C1F38101BD
:1042F00001290DD00068C0F38100022803D00EE030
:104300000120BDE8F88FD348001D0068400206D5A3
:10431000286880033FD5606870BB0120F1E76068C2
:10432000B0F5803F10D0B0F5A02F12D0286820F44F
:1043300080302860286820F4802028606068E0B120
:10434000FEF7D2FE064614E0286840F4803028606C
:10435000F4E7286840F480202860286840F4803022
:104360002860EBE7FEF7C0FE801B642801D903201C
:10437000C7E728688003F5D50DE0FEF7B5FE0646D1
:1043800006E0FEF7B1FE801B642801D90320B8E7E0
:1043900028688003F5D42078AF4F80074FF00008DD
:1043A00049D5AC480830016811F00C0F09D00068FD
:1043B000C0F38100022814D1A648001D0068400205
:1043C0000FD42868800704D5E068012801D00120B7
:1043D00097E72868216920F0F80040EAC1002860CA
:1043E00029E0E068B8B101203860FEF77DFE06469E
:1043F00006E0FEF779FE801B022801D9032080E742
:1044000028688007F5D52868216920F0F80040EA7F
:10441000C10028600FE0C7F80080FEF765FE064681
:1044200006E0FEF761FE801B022801D9032068E741
:1044300028688007F5D42078000729D5DFF8149282
:104440008648616909F1740989B101210160FEF7AB
:104450004BFE064606E0FEF747FE801B022801D908
:1044600003204EE7D9F800008007F4D510E0C0F82B
:104470000080FEF739FE064606E0FEF735FE801B9B
:10448000022801D903203CE7D9F800008007F4D4C2
:104490002078400772D50026DFF8B8A10AF1400A5B
:1044A000DAF80000C0000BD4DAF8000040F08050C9
:1044B000CAF80000DAF8000000F0805000900126F1
:1044C000DFF89CB1DBF80000C00515D4DBF8000074
:1044D00040F48070CBF80000FEF706FE814607E04E
:1044E000FEF702FEA0EB0900022801D9032008E72D
:1044F000DBF80000C005F3D5DFF858B1A0680BF178
:10450000700B012813D0052818D0DBF8000020F02C
:104510000100CBF80000DBF8000020F00400CBF82D
:104520000000A06830B3FEF7DFFD81461DE0DBF838
:10453000000040F00100CBF80000F2E7DBF80000DB
:1045400040F00400CBF80000DBF8000040F0010070
:10455000CBF80000E5E7FEF7C7FDA0EB090141F24B
:104560008830814201D90320CBE6DBF800008007C8
:10457000F1D512E0FEF7B8FD81460AE015E0FEF73E
:10458000B3FDA0EB090141F28830814201D903203B
:10459000B7E6DBF800008007F1D4012E05D1DAF888
:1045A000000020F08050CAF80000A069C0B329497B
:1045B00008310968C1F38101022949D0022805D0D8
:1045C000C7F86080FEF790FD04463CE0C7F86080C5
:1045D000FEF78AFD064606E0FEF786FD801B0228F0
:1045E00001D903208DE628688001F5D4D4E90701BC
:1045F0000843616AA26A4FF0FF33890103EB52025C
:1046000041EA0241084394F82C1040EA0161114844
:10461000001D016001203866FEF766FD044607E0D4
:1046200014E0FEF761FD001B022801D9032068E6B3
:1046300028688001F5D509E0FEF756FD001B022829
:1046400001D903205DE628688001F5D4002058E6F2
:10465000012056E60038024000004742800E4742E3
:104660000070004070B50446002C03D0607900252E
:1046700010B105E0012070BD2571204600F00CF856
:10468000022060712068016841F00401016001208E
:104690006071A560002070BD08B5006806498842B9
:1046A00008D10648016841F040010160006800F04F
:1046B0004000009008BD0000000806503438024059
:1046C00070B50446002C02D0607F10B106E00120D6
:1046D00070BD00202077204600F04EF80220607761
:1046E0002168CA204862216853204862204602F0AF
:1046F000F3FBFF25042620B1206845626677012080
:1047000070BD206881681B4A114081602068816803
:1047100062681143D4E904231A431143816021687C
:10472000E068086120680169228941EA024101616B
:104730002068C16821F08001C1602068806880061F
:1047400008D4204600F024F820B12068456266773E
:10475000012070BD2068016C21F480210164206873
:10476000016CA269114301642068456201206077F1
:10477000002070BDBFFF8FFF00680349884202D14F
:104780000249012008607047002800403C0E474263
:1047900070B505462868C16821F0A001C160FEF728
:1047A000A3FC04464FF47A7606E0FEF79DFC001B5E
:1047B000B04201D9032070BD2868C0688006F4D5D6
:1047C000002070BD70B50446002C05D00025A56200
:1047D00094F8510010B106E0012070BD84F85050EB
:1047E000204600F031F8022084F85100206801686A
:1047F00021F040010160D4E901010843D4E903122A
:104800001143084361690843218B01F40071084397
:10481000E1690843216A0843A16A084321680860E6
:10482000A069042101EA1040616A084321684860D8
:104830002068C16921F40061C1616565012084F8C7
:104840005100002070BD00002DE9F04387B00546FF
:10485000142102A8FBF713FF4B4B29684B48022495
:1048600001274B4A00264FF003084FF005099942F3
:1048700067D1464914310B6843F480530B600968D3
:1048800001F480510191016841F002010160016869
:1048900001F002010191016841F00101016000682D
:1048A00000F0010001901820029003940497CDF8C5
:1048B0001480CDF8189002A91046FEF72BFB80203B
:1048C000029003940497CDF81480CDF8189002A9B3
:1048D0003048FEF71FFB314C2F4820604FF0C06876
:1048E000C4F80480A660E660071527616661A661CA
:1048F000E6614FF44030206266622046FEF752FACD
:1049000008B1FDF7BAF9EC64A5632348234C1830CD
:1049100060342060C4F804804020A060E660276115
:104920006661A661E661C002206266622046FEF70B
:1049300039FA08B1FDF7A1F9AC64A56307B0BDE889
:10494000F083174B9942F9D1104910310B6843F4A9
:1049500080430B60096801F480410191016841F0D6
:1049600002010160006800F0020001904FF4604015
:10497000029003940497CDF81480CDF8189002A902
:104980001046FEF7C7FAD9E7003001403038024040
:104990000004024000000240406402402C0C002051
:1049A000003800402DE9F84F04460A9E8A46934697
:1049B0001F4601254FF0000894F8500001280ED042
:1049C000012084F85000FEF78FFB814694F85100D7
:1049D000616801280DD0B1F5827F07D102E0022085
:1049E000BDE8F88FA16809B9042802D04FF0020889
:1049F000C3E0BAF1000F28D0BBF1000F25D038007A
:104A000023D094F85100042802D0052084F85100E6
:104A100000206065C4F838B0E787A787C4F830A0E5
:104A2000E786A7862064606420680168490603D48D
:104A3000016841F040010160E068B0F5006F07D007
:104A40006068E8B3012F48D07DE04FF0010894E0A2
:104A5000606808B1012F39D1206B21680088C860D7
:104A6000206B801C2063E08E401EE0862EE02068D4
:104A7000816889070DD5E18E59B1012D09D1216BCE
:104A80000988C160206B801C2063E08E401EE08698
:104A9000002520688168C9070BD0E18F49B1C06843
:104AA000A16B0880A06B801CA063E08F401EE08794
:104AB0000125FEF719FBA0EB0900B04206D300E088
:104AC0000BE0701C02D04FF0030856E0E08E002887
:104AD000CDD1E08F0028CAD13BE0206B216800785F
:104AE0000873206B401C2063E08E401EE0862AE0A5
:104AF0002068816889070DD5E18E59B1012D09D152
:104B0000216B09780173206B401C2063E08E401EEE
:104B1000E086002520688168C9070BD0E18F49B184
:104B2000C068A16B0870A06B401CA063E08F401EA2
:104B3000E0870125FEF7D8FAA0EB0900B04201D3C7
:104B4000701C11D186B1E08E0028D1D1E08F0028F1
:104B5000CED14A463146204604F04CF838B14FF0E9
:104B600001082020606508E04FF0030805E0A06818
:104B700018B92068C16880680090012050346070C6
:104B80000020207040462BE710B5401EB0F1807F1A
:104B900001D3012010BD4FF0E02460610F216017A8
:104BA00005F017FD0020A06107202061002010BD46
:104BB0007047704710B590F83C20012A22D001229E
:104BC00080F83C20CA6800238C6822F4407222439B
:104BD0004C6822F4806222430C6822F40062224373
:104BE0000C6922F4805222434C6922F40052224381
:104BF000C96922F480420A4301684A6480F83C3063
:104C0000002010BD022010BD70B590F83C20012A94
:104C100019D0012600F83C6F0222427050F83C2C5B
:104C20005468936824F070050C682C4323F08003CB
:104C300049681943546050F83C2C9160467000213B
:104C40000170002070BD022070BD10B50446002C1C
:104C500003D094F83D0010B107E0012010BD002002
:104C600084F83C00204600F00DF8022084F83D0056
:104C7000211D206804F0E0F8012084F83D000020A8
:104C800010BD000008B500682549264A884208D1B1
:104C9000106840F001001060106800F00100009002
:104CA00008BD2049204B091F984208D1086840F0F0
:104CB00002000860086800F00200009008BD1B4B6D
:104CC000984208D1086840F004000860086800F0C5
:104CD0000400009008BD164B984208D1086840F0C7
:104CE00008000860086800F00800009008BD11493D
:104CF000884208D1106840F002001060106800F08F
:104D00000200009008BD0C498842FBD1106840F4B5
:104D100000301060106800F40030009008BD000002
:104D200000000140443802400004004000080040F8
:104D3000000C00400004014000440140022180F8C2
:104D40003D1001688A6802F00702062A03D00A684B
:104D500042F001020A60012180F83D1000207047F6
:104D60000168CA6842F00102CA600068816801F007
:104D70000701062903D0016841F00101016000200C
:104D8000704770B5044694F83C00012817D00125FF
:104D900084F83C50022084F83D002068826822F0AC
:104DA000770222F47F4282600868502831D00DDCFF
:104DB00020284DD005DCB0B310284ED148E00220A9
:104DC00070BD302844D0402847D137E060282BD030
:104DD000702806D0B0F5805F3FD0B0F5005F3CD1C1
:104DE0000BE0CB68D1E90121206804F098F8206835
:104DF000816841F0770181602FE0CB68D1E9012122
:104E0000206804F08CF82068816841F4804181605A
:104E100023E0CA684968206804F064F950212068DA
:104E200004F087F819E013E0CA684968206804F0C4
:104E30006AF96021206804F07CF80EE0CA684968CD
:104E4000206804F04FF94021206804F072F804E073
:104E500022680146104604F06CF83C34657000206E
:104E6000207070BD704770B50446206801694FF02E
:104E70000005C943890716D4C168C943890712D4FC
:104E8000E91E01610120207720688069800703D036
:104E90002046FFF7E7FF05E0204600F0ADF9204689
:104EA00000F035FA257720680169C943490718D40D
:104EB000C168C943490714D46FF00401016102209D
:104EC00020772068806910F4407F03D02046FFF7E8
:104ED000C9FF05E0204600F08FF9204600F017FAE0
:104EE000257720680169C943090717D4C168C943F8
:104EF000090713D46FF008010161042020772068AE
:104F0000C069800703D02046FFF7ACFF05E02046CC
:104F100000F072F9204600F0FAF92577206801695F
:104F2000C943C90618D4C168C943C90614D46FF06F
:104F300010010161082020772068C06910F4407FCB
:104F400003D02046FFF78EFF05E0204600F054F91D
:104F5000204600F0DCF9257720680169C943C907BC
:104F600008D1C168C943C90704D1891E016120461F
:104F700000F0F0F920680169C943090609D4C16845
:104F8000C943090605D46FF0800101612046FFF78F
:104F90000FFE20680169C943490609D4C168C943A5
:104FA000490605D46FF040010161204600F0E0F9A8
:104FB00020680169C94389060BD4C168C9438906C1
:104FC00007D46FF0200101612046BDE87040FFF773
:104FD000F0BD70BD2DE9F04186B00446142101A852
:104FE000FBF74DFB75482168754A02240125814273
:104FF00028D1106840F010001060106800F0100018
:1050000000904FF4D44001900294039504940595C8
:1050100001A96C48FDF77EFF6B48FFF78FFE00216A
:10502000694800F075F90421674800F071F908211A
:10503000654800F06DF90C21634800F069F906B08D
:10504000BDE8F0816148DFF8888181421BD110689A
:1050500040F004001060106800F004000090881513
:105060000190029403950494059401A94046FDF72C
:1050700051FF55484030FFF761FE5348082140304A
:1050800000F046F9DBE75348032681421BD1106844
:1050900040F008001060106800F00800009008144C
:1050A0000190029403950496059401A94A48FDF7DE
:1050B00031FF45488030FFF741FE434808218030EA
:1050C00000F026F9BBE74548814226D1106840F040
:1050D00080001060106800F0800000904FF4E050F5
:1050E0000190029403950494059401A93C48FDF7AE
:1050F00011FF3548C030FFF721FE33480021C03092
:1051000000F006F930480421C03000F001F92E48C3
:105110000821C03000F0FCF891E732484027814276
:105120002DD1106840F480701060106800F4807019
:105130000090106840F004001060106800F0040057
:1051400000900197029403950494059601A92648BE
:10515000FDF7E0FE0197029403950494059601A9DA
:105160004046FDF7D7FE2148FFF7E8FD00211F4824
:1051700000F0CEF804211D4800F0CAF85FE71C4893
:1051800081429FD1106840F020001060106800F04C
:10519000200000900197029403950494059601A9BC
:1051A0001448FDF7B7FE11484030FFF7C7FD0F4820
:1051B0000021403000F0ACF841E700000000014061
:1051C0003038024000100240EC0C00200004004087
:1051D0000008024000080040000C0240000C0040A3
:1051E000001C02400004014000200240EC0D0020A1
:1051F0000044014000140240704770B504460D465B
:1052000094F83C0001280DD0012684F83C6002206F
:1052100084F83D0042B1042A1AD0082A2DD00C2A65
:1052200053D13EE0022070BD2946206803F08AFE7B
:105230002068816941F0080181612068816921F05D
:1052400004018161206881692A69114381613CE020
:105250002946206803F0AAFE2068816941F40061B4
:1052600081612068816921F48061816120688169A0
:105270002A6941EA0221816127E02946206803F07A
:10528000CFFE2068C16941F00801C1612068C16991
:1052900021F00401C1612068C1692A691143C1611B
:1052A00013E02946206803F0F3FE2068C16941F449
:1052B0000061C1612068C16921F48061C161206819
:1052C000C1692A6941EA0221C1613C34667000204B
:1052D000207070BD10B50446002C03D094F83D003A
:1052E00010B107E0012010BD002084F83C002046EA
:1052F00000F00CF8022084F83D00211D206803F026
:105300009BFD012084F83D00002010BD70477047D0
:1053100010B504460122206803F0F4FD0B48216813
:10532000814202D00A48814203D1486C40F40040D7
:1053300048642068816801F00701062903D00168EC
:1053400041F001010160002010BD0000000001409B
:1053500000040140044900680968884203D10348F9
:105360000168491C01607047EC0D002020000020FE
:10537000704770B50446002C04D094F8390000251D
:1053800010B106E0012070BD84F83850204600F0CE
:1053900023F8242084F839002068C16821F40051E2
:1053A000C160204603F0C2FE2068016921F49041EB
:1053B00001612068416921F02A0141612068C168CA
:1053C00041F40051C160E563202084F8390084F87D
:1053D0003A00002070BD00002DE9F04F87B0044670
:1053E000142102A8FBF74BF98348824B143821683B
:1053F000814A0225002607154FF001084FF00309E6
:105400004FF0070B4FF4003A994252D1116841F026
:1054100010011160116801F010010191016841F063
:1054200002010160016801F002010191016841F08F
:1054300001010160006800F00100019080200290ED
:105440000395CDF81080CDF81490CDF818B002A9CE
:105450006A48FDF75FFD280202900395CDF81080A1
:10546000CDF81490CDF818B002A96548FDF752FDAB
:10547000654D6448286078046860AE60EE602F6116
:105480006E61AE61EE61C5F820A06E622846FDF740
:1054900089FC08B1FCF7F1FB6563AC6300220521D0
:1054A0002520FEF701FA2520FEF7F0F907B0BDE848
:1054B000F08F564B994240D14F49091F0A6842F478
:1054C00080220A60096801F480210191016841F09D
:1054D00004010160006800F0040001904FF4406096
:1054E00002900395CDF81080CDF81490CDF818B047
:1054F00002A94748FDF70EFD434D46486035286038
:105500004FF000606860AE60EE602F616E61AE616A
:10551000EE61C5F820A06E622846FDF743FC08B195
:10552000FCF7ABFB6563AC63002204212720FEF788
:10553000BBF92720FEF7AAF9B8E7374B9942B5D156
:10554000116841F020011160116801F02001019102
:10555000016841F040010160006800F040000190E6
:105560004FF4844002900395CDF81080CDF814904C
:105570000820069002A92948FDF7CCFC2148224DBD
:105580006038C03528604FF02068C5F80480AE60F0
:10559000EE602F616E61AE61EE61C5F820A06E62B3
:1055A0002846FDF7FFFB08B1FCF767FB6563AC63BA
:1055B00014481B4D18302860C5F804804020A860AE
:1055C000EE602F616E61AE61EE61800228626E62F4
:1055D0002846FDF7E7FB08B1FCF74FFB2563AC63FA
:1055E000002205214720FEF75FF94720FEF74EF91C
:1055F0005CE7000000100140443802400004024013
:1056000000000240886402402C0F00200048004047
:1056100000080240286002400014014000180240C7
:105620004C100020FEE701684A69D24352050FD4AE
:105630006FF480624A61002140F8301F20224273DB
:105640008173026942F00402026101730120704714
:10565000002070472DE9F84F0446DDE90AB60F46F1
:1056600090461D462068016841F480610160206811
:10567000016841F4807101604FF001195B4600221E
:1056800049462046009600F0FAF810B10120BDE826
:10569000F88F216807F0FE000861DFF8D8A03346D4
:1056A0005A465146204600F027F908B10120EEE79E
:1056B000206841698069009032465946204600F0D2
:1056C000A5F948B1206C042804D12068016841F490
:1056D000007101600120DAE7284608F0FF05012883
:1056E0000DD021684FEA18200861324659462046FD
:1056F00000F08CF968B1206C042803D007E0206822
:10570000056108E02068016841F400710160012032
:10571000BDE72068056132465946204600F076F91B
:1057200048B1206C042804D12068016841F400715C
:1057300001600120ABE72068016841F480710160DD
:105740005B46002249462046009600F098F808B1D2
:1057500001209CE72168F8B240F00100086133465F
:105760005A465146204600F0C7F808B101208EE79E
:1057700000208CE7020001002DE9F8430446DDE932
:1057800008970D46164698462068016841F48071D6
:1057900001604B4600224FF001112046009700F0B7
:1057A0006EF810B10120BDE8F883216805F0FE0015
:1057B00008613B464A461D49204600F09DF808B165
:1057C0000120F0E720684169806900903A46494627
:1057D000204600F01BF948B1206C042804D1206851
:1057E000016841F4007101600120DCE7F5B2B8F115
:1057F000010F0CD02168300A08613A46494620461C
:1058000000F004F968B1206C042803D007E0206898
:10581000056108E02068016841F400710160012021
:10582000C1E7206805610020BDE70000020001001B
:1058300070B504460D4616460DE02046FFF7F3FE10
:1058400008B1012070BD681C05D0FDF74DFC801B20
:10585000A84207D835B120684069C0434007ECD45E
:10586000002070BD002044F8300F20216173A07328
:10587000216941F0200121612073012070BD2DE9D3
:10588000F0470446DDF820900E4690461D46C6F3CC
:10589000074708E0681C06D0FDF726FCA0EB0900CE
:1058A000A8420FD875B1012F19D02068806926EA67
:1058B00000000004000C1DD000204045EAD000206C
:1058C000BDE8F087002044F8300F20216173A073F9
:1058D000216941F02001216120730120F0E7206857
:1058E000406926EA00000004000C01D00020E4E733
:1058F0000120E2E70120E0E72DE9F04704460E46EB
:10590000154698464FF000094FF0200AC6F30747A6
:1059100025E020684069C043400517D4206801682D
:1059200041F40071016021686FF480604861C4F83F
:10593000309084F83DA084F83E90206C40F0040044
:10594000206484F83C900120BDE8F087681C06D0F4
:10595000FDF7CAFBA0EB0800A8420BD855B1012FF8
:1059600016D02068806926EA00000004000CD0D11F
:105970000020E9E7C4F8309084F83DA084F83E9018
:10598000206C40F02000206484F83C900120DBE78C
:105990002068406926EA00000004000CE8D0B8E75F
:1059A0002DE9F04104460D46164600274FF0200829
:1059B00019E04069C043C0060FD421686FF01000A1
:1059C0004861276384F83D8084F83E70206C206431
:1059D00084F83C700120BDE8F081FDF785FB801B59
:1059E000A84207D835B120684169C9434906E0D4C7
:1059F0000020F0E744F8307F84F80D80A773206919
:105A000040F02000206127730120E4E770B50446D0
:105A10000D4616460DE02046FFF705FE08B10120B1
:105A200070BD681C05D0FDF75FFB801BA84207D83E
:105A300035B120684069C0430006ECD4002070BD39
:105A4000002044F8300F20216173A073216941F0D8
:105A5000200121612073012070BD000030B5034694
:105A60000C461088154D00280DD105F10C0090ED65
:105A7000000A85ED000A90ED010A85ED010A90ED1E
:105A8000020A85ED020A0D490C48703907F01AFF29
:105A900095ED000A84ED000A95ED010A84ED010AF6
:105AA00095ED020A84ED020AB7EE000A83ED000AC2
:105AB00083ED010A83ED020A30BD0000701E002054
:105AC0000A4891ED000A80ED000AD1ED010AC0ED0F
:105AD000010A91ED021A80ED021A0C3880ED000ADD
